{
  "address": "0xd3Ee28CB8ed02a5641DFA02624dF399b01f1e131",
  "abi": [
    {
      "inputs": [
        {
          "internalType": "address",
          "name": "_rewardTracker",
          "type": "address"
        }
      ],
      "stateMutability": "nonpayable",
      "type": "constructor"
    },
    {
      "anonymous": false,
      "inputs": [
        {
          "indexed": false,
          "internalType": "address",
          "name": "rewardToken",
          "type": "address"
        },
        {
          "indexed": false,
          "internalType": "uint256",
          "name": "amount",
          "type": "uint256"
        }
      ],
      "name": "Distribute",
      "type": "event"
    },
    {
      "anonymous": false,
      "inputs": [
        {
          "indexed": false,
          "internalType": "address",
          "name": "rewardToken",
          "type": "address"
        },
        {
          "indexed": false,
          "internalType": "uint256",
          "name": "amount",
          "type": "uint256"
        }
      ],
      "name": "TokensPerIntervalChange",
      "type": "event"
    },
    {
      "inputs": [],
      "name": "MAX_REWARD_TOKENS",
      "outputs": [
        {
          "internalType": "uint256",
          "name": "",
          "type": "uint256"
        }
      ],
      "stateMutability": "view",
      "type": "function"
    },
    {
      "inputs": [
        {
          "internalType": "address",
          "name": "_token",
          "type": "address"
        }
      ],
      "name": "addRewardToken",
      "outputs": [],
      "stateMutability": "nonpayable",
      "type": "function"
    },
    {
      "inputs": [],
      "name": "admin",
      "outputs": [
        {
          "internalType": "address",
          "name": "",
          "type": "address"
        }
      ],
      "stateMutability": "view",
      "type": "function"
    },
    {
      "inputs": [
        {
          "internalType": "uint256",
          "name": "",
          "type": "uint256"
        }
      ],
      "name": "allRewardTokens",
      "outputs": [
        {
          "internalType": "address",
          "name": "",
          "type": "address"
        }
      ],
      "stateMutability": "view",
      "type": "function"
    },
    {
      "inputs": [],
      "name": "allRewardTokensLength",
      "outputs": [
        {
          "internalType": "uint256",
          "name": "",
          "type": "uint256"
        }
      ],
      "stateMutability": "view",
      "type": "function"
    },
    {
      "inputs": [
        {
          "internalType": "address",
          "name": "",
          "type": "address"
        }
      ],
      "name": "allTokens",
      "outputs": [
        {
          "internalType": "bool",
          "name": "",
          "type": "bool"
        }
      ],
      "stateMutability": "view",
      "type": "function"
    },
    {
      "inputs": [
        {
          "internalType": "address",
          "name": "_rewardToken",
          "type": "address"
        }
      ],
      "name": "distribute",
      "outputs": [
        {
          "internalType": "uint256",
          "name": "",
          "type": "uint256"
        }
      ],
      "stateMutability": "nonpayable",
      "type": "function"
    },
    {
      "inputs": [],
      "name": "getAllRewardTokens",
      "outputs": [
        {
          "internalType": "address[]",
          "name": "",
          "type": "address[]"
        }
      ],
      "stateMutability": "view",
      "type": "function"
    },
    {
      "inputs": [],
      "name": "gov",
      "outputs": [
        {
          "internalType": "address",
          "name": "",
          "type": "address"
        }
      ],
      "stateMutability": "view",
      "type": "function"
    },
    {
      "inputs": [
        {
          "internalType": "address",
          "name": "",
          "type": "address"
        }
      ],
      "name": "lastDistributionTime",
      "outputs": [
        {
          "internalType": "uint256",
          "name": "",
          "type": "uint256"
        }
      ],
      "stateMutability": "view",
      "type": "function"
    },
    {
      "inputs": [
        {
          "internalType": "address",
          "name": "_rewardToken",
          "type": "address"
        }
      ],
      "name": "pendingRewards",
      "outputs": [
        {
          "internalType": "uint256",
          "name": "",
          "type": "uint256"
        }
      ],
      "stateMutability": "view",
      "type": "function"
    },
    {
      "inputs": [
        {
          "internalType": "address",
          "name": "_token",
          "type": "address"
        }
      ],
      "name": "removeRewardToken",
      "outputs": [],
      "stateMutability": "nonpayable",
      "type": "function"
    },
    {
      "inputs": [],
      "name": "rewardTokenCount",
      "outputs": [
        {
          "internalType": "uint256",
          "name": "",
          "type": "uint256"
        }
      ],
      "stateMutability": "view",
      "type": "function"
    },
    {
      "inputs": [
        {
          "internalType": "address",
          "name": "",
          "type": "address"
        }
      ],
      "name": "rewardTokens",
      "outputs": [
        {
          "internalType": "bool",
          "name": "",
          "type": "bool"
        }
      ],
      "stateMutability": "view",
      "type": "function"
    },
    {
      "inputs": [],
      "name": "rewardTracker",
      "outputs": [
        {
          "internalType": "address",
          "name": "",
          "type": "address"
        }
      ],
      "stateMutability": "view",
      "type": "function"
    },
    {
      "inputs": [
        {
          "internalType": "address",
          "name": "_admin",
          "type": "address"
        }
      ],
      "name": "setAdmin",
      "outputs": [],
      "stateMutability": "nonpayable",
      "type": "function"
    },
    {
      "inputs": [
        {
          "internalType": "address",
          "name": "_gov",
          "type": "address"
        }
      ],
      "name": "setGov",
      "outputs": [],
      "stateMutability": "nonpayable",
      "type": "function"
    },
    {
      "inputs": [
        {
          "internalType": "address",
          "name": "_rewardToken",
          "type": "address"
        },
        {
          "internalType": "uint256",
          "name": "_amount",
          "type": "uint256"
        }
      ],
      "name": "setTokensPerInterval",
      "outputs": [],
      "stateMutability": "nonpayable",
      "type": "function"
    },
    {
      "inputs": [
        {
          "internalType": "address",
          "name": "",
          "type": "address"
        }
      ],
      "name": "tokensPerInterval",
      "outputs": [
        {
          "internalType": "uint256",
          "name": "",
          "type": "uint256"
        }
      ],
      "stateMutability": "view",
      "type": "function"
    },
    {
      "inputs": [],
      "name": "updateAllLastDistributionTime",
      "outputs": [],
      "stateMutability": "nonpayable",
      "type": "function"
    },
    {
      "inputs": [
        {
          "internalType": "address",
          "name": "_rewardToken",
          "type": "address"
        }
      ],
      "name": "updateLastDistributionTime",
      "outputs": [],
      "stateMutability": "nonpayable",
      "type": "function"
    },
    {
      "inputs": [
        {
          "internalType": "address",
          "name": "_token",
          "type": "address"
        },
        {
          "internalType": "address",
          "name": "_account",
          "type": "address"
        },
        {
          "internalType": "uint256",
          "name": "_amount",
          "type": "uint256"
        }
      ],
      "name": "withdrawToken",
      "outputs": [],
      "stateMutability": "nonpayable",
      "type": "function"
    }
  ],
  "transactionHash": "0xc2efdd7e556a9df8c4d18d1630bc3375ca0f1390aa4d1e964b3a7790a006b4c7",
  "args": [
    "0xDd780758d9631153D5641B3F542B644F93AAbF58"
  ],
  "numDeployments": 1,
  "solcInputHash": "46b6ba796414a87d1bf6e0894b0ec801",
  "bytecode": "0x608060405234801561001057600080fd5b506040516114f63803806114f68339818101604052602081101561003357600080fd5b50516001600081905580546001600160a01b031990811633908117909255600880546001600160a01b039094169382169390931790925560098054909216179055611473806100836000396000f3fe608060405234801561001057600080fd5b50600436106101125760003560e01c806301e336671461011757806312d43a511461014f57806312edb24c1461017357806319f7ab45146101cb5780631c03e6cc146101f1578063270da24014610217578063286c6a941461024f57806331d7a262146102575780633d509c971461027d5780635d0cde97146102a357806363453ae1146102ab5780636bcb411a146102d1578063704b6c02146102d957806383b3dd24146102ff578063847ec40c1461032b57806395ded45c146103515780639ee80c5c1461038b578063abb06b95146103a8578063cfad57a2146103b0578063db65c26b146103d6578063f5ab16cc146103de578063f851a44014610404575b600080fd5b61014d6004803603606081101561012d57600080fd5b506001600160a01b0381358116916020810135909116906040013561040c565b005b61015761047c565b604080516001600160a01b039092168252519081900360200190f35b61017b61048b565b60408051602080825283518183015283519192839290830191858101910280838360005b838110156101b757818101518382015260200161019f565b505050509050019250505060405180910390f35b61014d600480360360208110156101e157600080fd5b50356001600160a01b0316610562565b61014d6004803603602081101561020757600080fd5b50356001600160a01b0316610612565b61023d6004803603602081101561022d57600080fd5b50356001600160a01b03166107a8565b60408051918252519081900360200190f35b61023d6107ba565b61023d6004803603602081101561026d57600080fd5b50356001600160a01b03166107c0565b61014d6004803603602081101561029357600080fd5b50356001600160a01b0316610892565b61023d610980565b61023d600480360360208110156102c157600080fd5b50356001600160a01b0316610985565b610157610ade565b61014d600480360360208110156102ef57600080fd5b50356001600160a01b0316610aed565b61014d6004803603604081101561031557600080fd5b506001600160a01b038135169060200135610b66565b61023d6004803603602081101561034157600080fd5b50356001600160a01b0316610d1c565b6103776004803603602081101561036757600080fd5b50356001600160a01b0316610d2e565b604080519115158252519081900360200190f35b610157600480360360208110156103a157600080fd5b5035610d43565b61023d610d6a565b61014d600480360360208110156103c657600080fd5b50356001600160a01b0316610d70565b61014d610de9565b610377600480360360208110156103f457600080fd5b50356001600160a01b0316610e9f565b610157610eb4565b6001546001600160a01b03163314610463576040805162461bcd60e51b815260206004820152601560248201527423b7bb32b93730b136329d103337b93134b23232b760591b604482015290519081900360640190fd5b6104776001600160a01b0384168383610ec3565b505050565b6001546001600160a01b031681565b6060806005546001600160401b03811180156104a657600080fd5b506040519080825280602002602001820160405280156104d0578160200160208202803683370190505b5090506000805b60025481101561055a576000600282815481106104f057fe5b60009182526020808320909101546001600160a01b0316808352600490915260409091205490915060ff166105255750610552565b8084848151811061053257fe5b6001600160a01b0390921660209283029190910190910152506001909101905b6001016104d7565b509091505090565b6009546001600160a01b031633146105af576040805162461bcd60e51b815260206004820152601c602482015260008051602061136e833981519152604482015290519081900360640190fd5b6001600160a01b03811660009081526004602052604090205460ff166106065760405162461bcd60e51b81526004018080602001828103825260278152602001806114166027913960400191505060405180910390fd5b61060f81610f15565b50565b6009546001600160a01b0316331461065f576040805162461bcd60e51b815260206004820152601c602482015260008051602061136e833981519152604482015290519081900360640190fd5b600a600554106106a05760405162461bcd60e51b81526004018080602001828103825260288152602001806113bf6028913960400191505060405180910390fd5b6001600160a01b03811660009081526004602052604090205460ff1661060f576000805b60025481101561070d57826001600160a01b0316600282815481106106e557fe5b6000918252602090912001546001600160a01b0316141561070557600191505b6001016106c4565b5080610777576002805460018082019092557f405787fa12a823e0f2b7631cc41b3ba8828b3321ca811111fa75cd3aa3bb5ace0180546001600160a01b0319166001600160a01b0385169081179091556000908152600360205260409020805460ff191690911790555b506001600160a01b03166000908152600460205260409020805460ff19166001908117909155600580549091019055565b60066020526000908152604090205481565b60025490565b6001600160a01b03811660009081526003602052604081205460ff166108175760405162461bcd60e51b81526004018080602001828103825260278152602001806114166027913960400191505060405180910390fd5b6001600160a01b03821660009081526007602052604090205442141561083f5750600061088d565b6001600160a01b038216600090815260076020526040812054610863904290610f31565b6001600160a01b0384166000908152600660205260409020549091506108899082610f7c565b9150505b919050565b6009546001600160a01b031633146108df576040805162461bcd60e51b815260206004820152601c602482015260008051602061136e833981519152604482015290519081900360640190fd5b6001600160a01b03811660009081526004602052604090205460ff161561060f576001600160a01b038116600090815260066020526040902054156109555760405162461bcd60e51b815260040180806020018281038252603181526020018061138e6031913960400191505060405180910390fd5b6001600160a01b03166000908152600460205260409020805460ff1916905560058054600019019055565b600a81565b6008546000906001600160a01b031633146109d15760405162461bcd60e51b81526004018080602001828103825260258152602001806113026025913960400191505060405180910390fd5b60006109dc836107c0565b9050806109ed57600091505061088d565b6001600160a01b038316600081815260076020908152604080832042905580516370a0823160e01b815230600482015290519293926370a0823192602480840193919291829003018186803b158015610a4557600080fd5b505afa158015610a59573d6000803e3d6000fd5b505050506040513d6020811015610a6f57600080fd5b5051905080821115610a7f578091505b610a936001600160a01b0385163384610ec3565b604080516001600160a01b03861681526020810184905281517fc1d32ad5cca423e7dda2123dbf8c482f8e77d00b631c06e903a47f2cec1334df929181900390910190a15092915050565b6008546001600160a01b031681565b6001546001600160a01b03163314610b44576040805162461bcd60e51b815260206004820152601560248201527423b7bb32b93730b136329d103337b93134b23232b760591b604482015290519081900360640190fd5b600980546001600160a01b0319166001600160a01b0392909216919091179055565b6009546001600160a01b03163314610bb3576040805162461bcd60e51b815260206004820152601c602482015260008051602061136e833981519152604482015290519081900360640190fd5b6001600160a01b03821660009081526004602052604090205460ff16610c0a5760405162461bcd60e51b81526004018080602001828103825260278152602001806114166027913960400191505060405180910390fd5b6001600160a01b038216600090815260076020526040902054610c5e5760405162461bcd60e51b815260040180806020018281038252602f8152602001806113e7602f913960400191505060405180910390fd5b60085460408051635fd6196560e01b81526001600160a01b03858116600483015291519190921691635fd6196591602480830192600092919082900301818387803b158015610cac57600080fd5b505af1158015610cc0573d6000803e3d6000fd5b5050506001600160a01b0383166000818152600660209081526040918290208590558151928352820184905280517f83a9322775b48550bbef762b82384c8ed0b747ff4c37188bd3bb72e3c7cca8239350918290030190a15050565b60076020526000908152604090205481565b60036020526000908152604090205460ff1681565b60028181548110610d5057fe5b6000918252602090912001546001600160a01b0316905081565b60055481565b6001546001600160a01b03163314610dc7576040805162461bcd60e51b815260206004820152601560248201527423b7bb32b93730b136329d103337b93134b23232b760591b604482015290519081900360640190fd5b600180546001600160a01b0319166001600160a01b0392909216919091179055565b6009546001600160a01b03163314610e36576040805162461bcd60e51b815260206004820152601c602482015260008051602061136e833981519152604482015290519081900360640190fd5b60025460005b81811015610e9b57600060028281548110610e5357fe5b60009182526020808320909101546001600160a01b0316808352600490915260409091205490915060ff16610e885750610e93565b610e9181610f15565b505b600101610e3c565b5050565b60046020526000908152604090205460ff1681565b6009546001600160a01b031681565b604080516001600160a01b038416602482015260448082018490528251808303909101815260649091019091526020810180516001600160e01b031663a9059cbb60e01b179052610477908490610fd5565b6001600160a01b03166000908152600760205260409020429055565b6000610f7383836040518060400160405280601e81526020017f536166654d6174683a207375627472616374696f6e206f766572666c6f770000815250611086565b90505b92915050565b600082610f8b57506000610f76565b82820282848281610f9857fe5b0414610f735760405162461bcd60e51b815260040180806020018281038252602181526020018061134d6021913960400191505060405180910390fd5b606061102a826040518060400160405280602081526020017f5361666545524332303a206c6f772d6c6576656c2063616c6c206661696c6564815250856001600160a01b03166111229092919063ffffffff16565b8051909150156104775780806020019051602081101561104957600080fd5b50516104775760405162461bcd60e51b815260040180806020018281038252602a81526020018061143d602a913960400191505060405180910390fd5b600081848411156111155760405162461bcd60e51b81526004018080602001828103825283818151815260200191508051906020019080838360005b838110156110da5781810151838201526020016110c2565b50505050905090810190601f1680156111075780820380516001836020036101000a031916815260200191505b509250505060405180910390fd5b50508183035b9392505050565b60606111318484600085611139565b949350505050565b60608247101561117a5760405162461bcd60e51b81526004018080602001828103825260268152602001806113276026913960400191505060405180910390fd5b61118385611295565b6111d4576040805162461bcd60e51b815260206004820152601d60248201527f416464726573733a2063616c6c20746f206e6f6e2d636f6e7472616374000000604482015290519081900360640190fd5b60006060866001600160a01b031685876040518082805190602001908083835b602083106112135780518252601f1990920191602091820191016111f4565b6001836020036101000a03801982511681845116808217855250505050505090500191505060006040518083038185875af1925050503d8060008114611275576040519150601f19603f3d011682016040523d82523d6000602084013e61127a565b606091505b509150915061128a82828661129b565b979650505050505050565b3b151590565b606083156112aa57508161111b565b8251156112ba5782518084602001fd5b60405162461bcd60e51b81526020600482018181528451602484015284518593919283926044019190850190808383600083156110da5781810151838201526020016110c256fe5265776172644469737472696275746f723a20696e76616c6964206d73672e73656e646572416464726573733a20696e73756666696369656e742062616c616e636520666f722063616c6c536166654d6174683a206d756c7469706c69636174696f6e206f766572666c6f775265776172644469737472696275746f723a20666f7262696464656e000000005265776172644469737472696275746f723a20746f6b656e73506572496e74657276616c206d757374206265207a65726f5265776172644469737472696275746f723a20746f6f206d616e7920726577617264546f6b656e735265776172644469737472696275746f723a20696e76616c6964206c617374446973747269627574696f6e54696d655265776172644469737472696275746f723a20696e76616c6964205f726577617264546f6b656e5361666545524332303a204552433230206f7065726174696f6e20646964206e6f742073756363656564a164736f6c634300060c000a",
  "devdoc": {
    "kind": "dev",
    "methods": {},
    "version": 1
  },
  "userdoc": {
    "kind": "user",
    "methods": {},
    "version": 1
  },
  "storageLayout": {
    "storage": [
      {
        "astId": 22661,
        "contract": "contracts/staking/TokenDistributors.sol:FeeQlpDistributor",
        "label": "_status",
        "offset": 0,
        "slot": "0",
        "type": "t_uint256"
      },
      {
        "astId": 3,
        "contract": "contracts/staking/TokenDistributors.sol:FeeQlpDistributor",
        "label": "gov",
        "offset": 0,
        "slot": "1",
        "type": "t_address"
      },
      {
        "astId": 33772,
        "contract": "contracts/staking/TokenDistributors.sol:FeeQlpDistributor",
        "label": "allRewardTokens",
        "offset": 0,
        "slot": "2",
        "type": "t_array(t_address)dyn_storage"
      },
      {
        "astId": 33777,
        "contract": "contracts/staking/TokenDistributors.sol:FeeQlpDistributor",
        "label": "allTokens",
        "offset": 0,
        "slot": "3",
        "type": "t_mapping(t_address,t_bool)"
      },
      {
        "astId": 33782,
        "contract": "contracts/staking/TokenDistributors.sol:FeeQlpDistributor",
        "label": "rewardTokens",
        "offset": 0,
        "slot": "4",
        "type": "t_mapping(t_address,t_bool)"
      },
      {
        "astId": 33785,
        "contract": "contracts/staking/TokenDistributors.sol:FeeQlpDistributor",
        "label": "rewardTokenCount",
        "offset": 0,
        "slot": "5",
        "type": "t_uint256"
      },
      {
        "astId": 33790,
        "contract": "contracts/staking/TokenDistributors.sol:FeeQlpDistributor",
        "label": "tokensPerInterval",
        "offset": 0,
        "slot": "6",
        "type": "t_mapping(t_address,t_uint256)"
      },
      {
        "astId": 33794,
        "contract": "contracts/staking/TokenDistributors.sol:FeeQlpDistributor",
        "label": "lastDistributionTime",
        "offset": 0,
        "slot": "7",
        "type": "t_mapping(t_address,t_uint256)"
      },
      {
        "astId": 33796,
        "contract": "contracts/staking/TokenDistributors.sol:FeeQlpDistributor",
        "label": "rewardTracker",
        "offset": 0,
        "slot": "8",
        "type": "t_address"
      },
      {
        "astId": 33798,
        "contract": "contracts/staking/TokenDistributors.sol:FeeQlpDistributor",
        "label": "admin",
        "offset": 0,
        "slot": "9",
        "type": "t_address"
      }
    ],
    "types": {
      "t_address": {
        "encoding": "inplace",
        "label": "address",
        "numberOfBytes": "20"
      },
      "t_array(t_address)dyn_storage": {
        "base": "t_address",
        "encoding": "dynamic_array",
        "label": "address[]",
        "numberOfBytes": "32"
      },
      "t_bool": {
        "encoding": "inplace",
        "label": "bool",
        "numberOfBytes": "1"
      },
      "t_mapping(t_address,t_bool)": {
        "encoding": "mapping",
        "key": "t_address",
        "label": "mapping(address => bool)",
        "numberOfBytes": "32",
        "value": "t_bool"
      },
      "t_mapping(t_address,t_uint256)": {
        "encoding": "mapping",
        "key": "t_address",
        "label": "mapping(address => uint256)",
        "numberOfBytes": "32",
        "value": "t_uint256"
      },
      "t_uint256": {
        "encoding": "inplace",
        "label": "uint256",
        "numberOfBytes": "32"
      }
    }
  }
}