{
  "_format": "hh-sol-artifact-1",
  "contractName": "OrderBookSwap",
  "sourceName": "contracts/core/OrderBookSwap.sol",
  "abi": [
    {
      "inputs": [],
      "stateMutability": "nonpayable",
      "type": "constructor"
    },
    {
      "inputs": [
        {
          "internalType": "uint256[]",
          "name": "_swapOrderIndexes",
          "type": "uint256[]"
        }
      ],
      "name": "cancelMultiple",
      "outputs": [],
      "stateMutability": "nonpayable",
      "type": "function"
    },
    {
      "inputs": [
        {
          "internalType": "uint256",
          "name": "_orderIndex",
          "type": "uint256"
        }
      ],
      "name": "cancelSwapOrder",
      "outputs": [],
      "stateMutability": "nonpayable",
      "type": "function"
    },
    {
      "inputs": [
        {
          "internalType": "address[]",
          "name": "_path",
          "type": "address[]"
        },
        {
          "internalType": "uint256",
          "name": "_amountIn",
          "type": "uint256"
        },
        {
          "internalType": "uint256",
          "name": "_minOut",
          "type": "uint256"
        },
        {
          "internalType": "uint256",
          "name": "_triggerRatio",
          "type": "uint256"
        },
        {
          "internalType": "bool",
          "name": "_triggerAboveThreshold",
          "type": "bool"
        },
        {
          "internalType": "uint256",
          "name": "_executionFee",
          "type": "uint256"
        },
        {
          "internalType": "bool",
          "name": "_shouldWrap",
          "type": "bool"
        },
        {
          "internalType": "bool",
          "name": "_shouldUnwrap",
          "type": "bool"
        }
      ],
      "name": "createSwapOrder",
      "outputs": [],
      "stateMutability": "payable",
      "type": "function"
    },
    {
      "inputs": [
        {
          "internalType": "uint256",
          "name": "",
          "type": "uint256"
        }
      ],
      "name": "errors",
      "outputs": [
        {
          "internalType": "string",
          "name": "",
          "type": "string"
        }
      ],
      "stateMutability": "view",
      "type": "function"
    },
    {
      "inputs": [
        {
          "internalType": "address",
          "name": "_account",
          "type": "address"
        },
        {
          "internalType": "uint256",
          "name": "_orderIndex",
          "type": "uint256"
        },
        {
          "internalType": "address payable",
          "name": "_feeReceiver",
          "type": "address"
        }
      ],
      "name": "executeSwapOrder",
      "outputs": [],
      "stateMutability": "nonpayable",
      "type": "function"
    },
    {
      "inputs": [
        {
          "internalType": "address",
          "name": "_account",
          "type": "address"
        },
        {
          "internalType": "uint256",
          "name": "_orderIndex",
          "type": "uint256"
        }
      ],
      "name": "getSwapOrder",
      "outputs": [
        {
          "internalType": "address",
          "name": "path0",
          "type": "address"
        },
        {
          "internalType": "address",
          "name": "path1",
          "type": "address"
        },
        {
          "internalType": "address",
          "name": "path2",
          "type": "address"
        },
        {
          "internalType": "uint256",
          "name": "amountIn",
          "type": "uint256"
        },
        {
          "internalType": "uint256",
          "name": "minOut",
          "type": "uint256"
        },
        {
          "internalType": "uint256",
          "name": "triggerRatio",
          "type": "uint256"
        },
        {
          "internalType": "bool",
          "name": "triggerAboveThreshold",
          "type": "bool"
        },
        {
          "internalType": "bool",
          "name": "shouldUnwrap",
          "type": "bool"
        },
        {
          "internalType": "uint256",
          "name": "executionFee",
          "type": "uint256"
        }
      ],
      "stateMutability": "view",
      "type": "function"
    },
    {
      "inputs": [],
      "name": "gov",
      "outputs": [
        {
          "internalType": "address",
          "name": "",
          "type": "address"
        }
      ],
      "stateMutability": "view",
      "type": "function"
    },
    {
      "inputs": [
        {
          "internalType": "address",
          "name": "_router",
          "type": "address"
        },
        {
          "internalType": "address",
          "name": "_vault",
          "type": "address"
        },
        {
          "internalType": "address",
          "name": "_weth",
          "type": "address"
        },
        {
          "internalType": "address",
          "name": "_usdm",
          "type": "address"
        },
        {
          "internalType": "uint256",
          "name": "_minExecutionFee",
          "type": "uint256"
        }
      ],
      "name": "initialize",
      "outputs": [],
      "stateMutability": "nonpayable",
      "type": "function"
    },
    {
      "inputs": [],
      "name": "isInitialized",
      "outputs": [
        {
          "internalType": "bool",
          "name": "",
          "type": "bool"
        }
      ],
      "stateMutability": "view",
      "type": "function"
    },
    {
      "inputs": [],
      "name": "minExecutionFee",
      "outputs": [
        {
          "internalType": "uint256",
          "name": "",
          "type": "uint256"
        }
      ],
      "stateMutability": "view",
      "type": "function"
    },
    {
      "inputs": [],
      "name": "orderExecutor",
      "outputs": [
        {
          "internalType": "address",
          "name": "",
          "type": "address"
        }
      ],
      "stateMutability": "view",
      "type": "function"
    },
    {
      "inputs": [],
      "name": "positionUtils",
      "outputs": [
        {
          "internalType": "contract IPositionUtils",
          "name": "",
          "type": "address"
        }
      ],
      "stateMutability": "view",
      "type": "function"
    },
    {
      "inputs": [],
      "name": "router",
      "outputs": [
        {
          "internalType": "address",
          "name": "",
          "type": "address"
        }
      ],
      "stateMutability": "view",
      "type": "function"
    },
    {
      "inputs": [
        {
          "internalType": "string[]",
          "name": "_errors",
          "type": "string[]"
        }
      ],
      "name": "setErrors",
      "outputs": [],
      "stateMutability": "nonpayable",
      "type": "function"
    },
    {
      "inputs": [
        {
          "internalType": "address",
          "name": "_gov",
          "type": "address"
        }
      ],
      "name": "setGov",
      "outputs": [],
      "stateMutability": "nonpayable",
      "type": "function"
    },
    {
      "inputs": [
        {
          "internalType": "uint256",
          "name": "_minExecutionFee",
          "type": "uint256"
        }
      ],
      "name": "setMinExecutionFee",
      "outputs": [],
      "stateMutability": "nonpayable",
      "type": "function"
    },
    {
      "inputs": [
        {
          "internalType": "address",
          "name": "_orderExecutor",
          "type": "address"
        }
      ],
      "name": "setOrderExecutor",
      "outputs": [],
      "stateMutability": "nonpayable",
      "type": "function"
    },
    {
      "inputs": [
        {
          "internalType": "contract IPositionUtils",
          "name": "_positionUtils",
          "type": "address"
        }
      ],
      "name": "setPositionUtils",
      "outputs": [],
      "stateMutability": "nonpayable",
      "type": "function"
    },
    {
      "inputs": [
        {
          "internalType": "address",
          "name": "",
          "type": "address"
        },
        {
          "internalType": "uint256",
          "name": "",
          "type": "uint256"
        }
      ],
      "name": "swapOrders",
      "outputs": [
        {
          "internalType": "address",
          "name": "account",
          "type": "address"
        },
        {
          "internalType": "uint256",
          "name": "amountIn",
          "type": "uint256"
        },
        {
          "internalType": "uint256",
          "name": "minOut",
          "type": "uint256"
        },
        {
          "internalType": "uint256",
          "name": "triggerRatio",
          "type": "uint256"
        },
        {
          "internalType": "bool",
          "name": "triggerAboveThreshold",
          "type": "bool"
        },
        {
          "internalType": "bool",
          "name": "shouldUnwrap",
          "type": "bool"
        },
        {
          "internalType": "uint256",
          "name": "executionFee",
          "type": "uint256"
        }
      ],
      "stateMutability": "view",
      "type": "function"
    },
    {
      "inputs": [
        {
          "internalType": "address",
          "name": "",
          "type": "address"
        }
      ],
      "name": "swapOrdersIndex",
      "outputs": [
        {
          "internalType": "uint256",
          "name": "",
          "type": "uint256"
        }
      ],
      "stateMutability": "view",
      "type": "function"
    },
    {
      "inputs": [
        {
          "internalType": "uint256",
          "name": "_orderIndex",
          "type": "uint256"
        },
        {
          "internalType": "uint256",
          "name": "_minOut",
          "type": "uint256"
        },
        {
          "internalType": "uint256",
          "name": "_triggerRatio",
          "type": "uint256"
        },
        {
          "internalType": "bool",
          "name": "_triggerAboveThreshold",
          "type": "bool"
        }
      ],
      "name": "updateSwapOrder",
      "outputs": [],
      "stateMutability": "nonpayable",
      "type": "function"
    },
    {
      "inputs": [],
      "name": "usdm",
      "outputs": [
        {
          "internalType": "address",
          "name": "",
          "type": "address"
        }
      ],
      "stateMutability": "view",
      "type": "function"
    },
    {
      "inputs": [],
      "name": "vault",
      "outputs": [
        {
          "internalType": "address",
          "name": "",
          "type": "address"
        }
      ],
      "stateMutability": "view",
      "type": "function"
    },
    {
      "inputs": [],
      "name": "weth",
      "outputs": [
        {
          "internalType": "address",
          "name": "",
          "type": "address"
        }
      ],
      "stateMutability": "view",
      "type": "function"
    },
    {
      "stateMutability": "payable",
      "type": "receive"
    }
  ],
  "bytecode": "0x6080604052600b805460ff1916905534801561001a57600080fd5b506001600055600380546001600160a01b03191633179055612467806100416000396000f3fe60806040526004361061011e5760003560e01c8062cf066b1461014357806307c7edc31461017957806312d43a51146101995780632152336a146101bb578063269ae6c2146101db578063392e53cd146101ee5780633fc8cef3146102105780634b8d6f3b1461022557806363ae210314610245578063756677a11461025a57806379221fa21461027a5780638659c270146102ad578063a849d644146102cd578063c86b0f7d146102e2578063cfad57a214610302578063d0d40cd614610322578063d95423e614610357578063ee138d0f1461036c578063f7013ef614610381578063f882ac07146103a1578063f887ea40146103c1578063fbfa77cf146103d6578063fc2cee62146103eb578063fed1a6061461040b5761013e565b3661013e5760045461013c906001600160a01b031633146002610438565b005b600080fd5b34801561014f57600080fd5b5061016361015e366004611a91565b610472565b6040516101709190612362565b60405180910390f35b34801561018557600080fd5b5061013c610194366004611b3b565b610484565b3480156101a557600080fd5b506101ae610839565b6040516101709190611e74565b3480156101c757600080fd5b5061013c6101d6366004611a91565b610848565b61013c6101e9366004611b7c565b610872565b3480156101fa57600080fd5b50610203610c32565b604051610170919061211c565b34801561021c57600080fd5b506101ae610c3b565b34801561023157600080fd5b5061013c610240366004611c76565b610c4a565b34801561025157600080fd5b50610163610c9d565b34801561026657600080fd5b5061013c610275366004611a91565b610ca3565b34801561028657600080fd5b5061029a610295366004611b10565b610ccd565b60405161017097969594939291906120bb565b3480156102b957600080fd5b5061013c6102c8366004611ce4565b610d24565b3480156102d957600080fd5b506101ae610d58565b3480156102ee57600080fd5b5061013c6102fd366004611dbf565b610d67565b34801561030e57600080fd5b5061013c61031d366004611a91565b610e35565b34801561032e57600080fd5b5061034261033d366004611b10565b610e5f565b60405161017099989796959493929190611fe5565b34801561036357600080fd5b506101ae61105a565b34801561037857600080fd5b506101ae611069565b34801561038d57600080fd5b5061013c61039c366004611aad565b611078565b3480156103ad57600080fd5b5061013c6103bc366004611d8f565b6110f4565b3480156103cd57600080fd5b506101ae61139a565b3480156103e257600080fd5b506101ae6113a9565b3480156103f757600080fd5b5061013c610406366004611d8f565b6113b8565b34801561041757600080fd5b5061042b610426366004611d8f565b6113c5565b6040516101709190612127565b6000818152600c602052604090208261046d5760405162461bcd60e51b8152600401610464919061215a565b60405180910390fd5b505050565b60026020526000908152604090205481565b600260005414156104a75760405162461bcd60e51b81526004016104649061232b565b60026000556104b4611460565b6104bc611904565b6001600160a01b038085166000908152600160208181526040808420888552825292839020835161010081018552815490951685529182018054845181840281018401909552808552929385830193909283018282801561054657602002820191906000526020600020905b81546001600160a01b03168152600190910190602001808311610528575b5050509183525050600282015460208201526003820154604082015260048201546060820152600582015460ff8082161515608084015261010090910416151560a082015260069091015460c09091015280519091506105b2906001600160a01b03161515600b610438565b8060a001511561064d576009546020820151608083015160405163c4a1821b60e01b815261064d936001600160a01b03169263c4a1821b926105f6926004016120fa565b60206040518083038186803b15801561060e57600080fd5b505afa158015610622573d6000803e3d6000fd5b505050506040513d601f19601f820116820180604052508101906106469190611d73565b600c610438565b6001600160a01b0384166000908152600160208181526040808420878552909152822080546001600160a01b0319168155919061068c90830182611956565b50600060028201819055600382018190556004820181905560058201805461ffff1916905560069091018190556007546040830151602084015180516106ff946001600160a01b0390941693906106df57fe5b60200260200101516001600160a01b031661147b9092919063ffffffff16565b600454602082015180516000926001600160a01b03169190600019810190811061072557fe5b60200260200101516001600160a01b031614801561074457508160c001515b156107715761075c82602001518360600151306114d1565b905061076c81836000015161152a565b61078b565b6107888260200151836060015184600001516114d1565b90505b6107998260e001518461152a565b60095460208301516040808501516060860151608087015160a088015160c089015160e08a015195516313863e8760e01b81526001600160a01b03909816976313863e87976107fb978f978f979296909592948d949193929091600401612050565b600060405180830381600087803b15801561081557600080fd5b505af1158015610829573d6000803e3d6000fd5b5050600160005550505050505050565b6003546001600160a01b031681565b61085061159f565b600980546001600160a01b0319166001600160a01b0392909216919091179055565b600260005414156108955760405162461bcd60e51b81526004016104649061232b565b6002600081905588516108aa91146003610438565b6108f58860018a5103815181106108bd57fe5b60200260200101516001600160a01b0316896000815181106108db57fe5b60200260200101516001600160a01b031614156004610438565b6005548851610969916001600160a01b0316908a9060009061091357fe5b60200260200101516001600160a01b031614158015610962575060055489516001600160a01b03909116908a90600019810190811061094e57fe5b60200260200101516001600160a01b031614155b6005610438565b610977600088116006610438565b610987600a548410156007610438565b61098f6115b8565b81156109e75760045488516109cc916001600160a01b0316908a906000906109b357fe5b60200260200101516001600160a01b0316146008610438565b6109e26109d9848961161e565b34146009610438565b610a73565b6109f4833414600a610438565b60065488516001600160a01b0390911690631b827878908a90600090610a1657fe5b602002602001015133308b6040518563ffffffff1660e01b8152600401610a409493929190611f98565b600060405180830381600087803b158015610a5a57600080fd5b505af1158015610a6e573d6000803e3d6000fd5b505050505b33600090815260026020526040902054610a8b611904565b506040805161010081018252338152602081018b9052908101899052606081018890526080810187905285151560a082015282151560c082015260e08101859052610ad782600161161e565b336000908152600260209081526040808320939093556001808252838320868452825292909120835181546001600160a01b0319166001600160a01b0390911617815583820151805185949293610b32938501920190611977565b5060408201518160020155606082015181600301556080820151816004015560a08201518160050160006101000a81548160ff02191690831515021790555060c08201518160050160016101000a81548160ff02191690831515021790555060e08201518160060155905050600960009054906101000a90046001600160a01b03166001600160a01b031663662b053133848d8d8d8d8d8b8e6040518a63ffffffff1660e01b8152600401610bef99989796959493929190611e88565b600060405180830381600087803b158015610c0957600080fd5b505af1158015610c1d573d6000803e3d6000fd5b50506001600055505050505050505050505050565b600b5460ff1681565b6004546001600160a01b031681565b610c5261159f565b60005b8181101561046d57828282818110610c6957fe5b9050602002810190610c7b919061236b565b6000838152600c60205260409020610c949290916119dc565b50600101610c55565b600a5481565b610cab61159f565b600880546001600160a01b0319166001600160a01b0392909216919091179055565b60016020908152600092835260408084209091529082529020805460028201546003830154600484015460058501546006909501546001600160a01b039094169492939192909160ff808316926101009004169087565b60005b8151811015610d5457610d4c828281518110610d3f57fe5b60200260200101516110f4565b600101610d27565b5050565b6008546001600160a01b031681565b60026000541415610d8a5760405162461bcd60e51b81526004016104649061232b565b6002600090815533815260016020908152604080832087845290915290208054610dc0906001600160a01b03161515600b610438565b60038101849055600480820184905560058201805484151560ff19909116179081905560095460028401546006850154604051630244ae8560e11b81526001600160a01b03909316946304895d0a946107fb9433948d9460018b019491938e938e938e9361010090930460ff16929101611eeb565b610e3d61159f565b600380546001600160a01b0319166001600160a01b0392909216919091179055565b6000806000806000806000806000610e75611904565b600160008d6001600160a01b03166001600160a01b0316815260200190815260200160002060008c8152602001908152602001600020604051806101000160405290816000820160009054906101000a90046001600160a01b03166001600160a01b03166001600160a01b0316815260200160018201805480602002602001604051908101604052809291908181526020018280548015610f3f57602002820191906000526020600020905b81546001600160a01b03168152600190910190602001808311610f21575b505050918352505060028201546020808301919091526003830154604083015260048301546060830152600583015460ff8082161515608085015261010090910416151560a083015260069092015460c09091015281015151909150610fa6576000610fc0565b8060200151600081518110610fb757fe5b60200260200101515b600182602001515111610fd4576000610fee565b8160200151600181518110610fe557fe5b60200260200101515b60028360200151511161100257600061101c565b826020015160028151811061101357fe5b60200260200101515b8360400151846060015185608001518660a001518760c001518860e00151995099509950995099509950995099509950509295985092959850929598565b6009546001600160a01b031681565b6005546001600160a01b031681565b61108061159f565b600b546110929060ff16156001610438565b600b8054600160ff19909116179055600680546001600160a01b03199081166001600160a01b03978816179091556007805482169587169590951790945560048054851693861693909317909255600580549093169316929092179055600a55565b600260005414156111175760405162461bcd60e51b81526004016104649061232b565b6002600055611124611904565b33600090815260016020818152604080842086855282529283902083516101008101855281546001600160a01b03168152928101805485518185028101850190965280865293949193858401938301828280156111aa57602002820191906000526020600020905b81546001600160a01b0316815260019091019060200180831161118c575b5050509183525050600282015460208201526003820154604082015260048201546060820152600582015460ff8082161515608084015261010090910416151560a082015260069091015460c0909101528051909150611216906001600160a01b03161515600b610438565b336000908152600160208181526040808420868552909152822080546001600160a01b0319168155919061124c90830182611956565b5060006002820181905560038201819055600480830182905560058301805461ffff1916905560069092018190559054602083015180516001600160a01b0390921692909161129757fe5b60200260200101516001600160a01b031614156112d7576112d26112cc82604001518360e0015161161e90919063ffffffff16565b3361152a565b6112ff565b6112f133826040015183602001516000815181106106df57fe5b6112ff8160e001513361152a565b60095460208201516040808401516060850151608086015160a087015160c088015160e089015195516368f81f7f60e11b81526001600160a01b039098169763d1f03efe9761135f9733978d979296909592949093909190600401611e88565b600060405180830381600087803b15801561137957600080fd5b505af115801561138d573d6000803e3d6000fd5b5050600160005550505050565b6006546001600160a01b031681565b6007546001600160a01b031681565b6113c061159f565b600a55565b600c6020908152600091825260409182902080548351601f6002600019610100600186161502019093169290920491820184900484028101840190945280845290918301828280156114585780601f1061142d57610100808354040283529160200191611458565b820191906000526020600020905b81548152906001019060200180831161143b57829003601f168201915b505050505081565b600854611479906001600160a01b031633146000610438565b565b61046d8363a9059cbb60e01b848460405160240161149a929190612037565b60408051601f198184030181529190526020810180516001600160e01b03166001600160e01b03199093169290921790915261164c565b60006114e284516002146003610438565b83516002141561152357611520846000815181106114fc57fe5b60200260200101518560018151811061151157fe5b602002602001015185856116db565b90505b9392505050565b60048054604051632e1a7d4d60e01b81526001600160a01b0390911691632e1a7d4d9161155991869101612362565b600060405180830381600087803b15801561157357600080fd5b505af1158015611587573d6000803e3d6000fd5b50610d54925050506001600160a01b0382168361177f565b600354611479906001600160a01b031633146000610438565b3415611479576004805460408051630d0e30db60e41b815290516001600160a01b039092169263d0e30db0923492808301926000929182900301818588803b15801561160357600080fd5b505af1158015611617573d6000803e3d6000fd5b5050505050565b6000828201838110156116435760405162461bcd60e51b8152600401610464906121e4565b90505b92915050565b60606116a1826040518060400160405280602081526020017f5361666545524332303a206c6f772d6c6576656c2063616c6c206661696c6564815250856001600160a01b031661181b9092919063ffffffff16565b80519091501561046d57808060200190518101906116bf9190611d73565b61046d5760405162461bcd60e51b8152600401610464906122e1565b600754604051634998b10960e11b815260009182916001600160a01b039091169063933162129061171490899089908890600401611fc2565b602060405180830381600087803b15801561172e57600080fd5b505af1158015611742573d6000803e3d6000fd5b505050506040513d601f19601f820116820180604052508101906117669190611da7565b9050611776848210156010610438565b95945050505050565b8047101561179f5760405162461bcd60e51b815260040161046490612273565b6000826001600160a01b0316826040516117b890611e71565b60006040518083038185875af1925050503d80600081146117f5576040519150601f19603f3d011682016040523d82523d6000602084013e6117fa565b606091505b505090508061046d5760405162461bcd60e51b815260040161046490612219565b606061152084846000858561182f856118c5565b61184b5760405162461bcd60e51b8152600401610464906122aa565b60006060866001600160a01b031685876040516118689190611e55565b60006040518083038185875af1925050503d80600081146118a5576040519150601f19603f3d011682016040523d82523d6000602084013e6118aa565b606091505b50915091506118ba8282866118cb565b979650505050505050565b3b151590565b606083156118da575081611523565b8251156118ea5782518084602001fd5b8160405162461bcd60e51b81526004016104649190612127565b60405180610100016040528060006001600160a01b0316815260200160608152602001600081526020016000815260200160008152602001600015158152602001600015158152602001600081525090565b50805460008255906000526020600020908101906119749190611a52565b50565b8280548282559060005260206000209081019282156119cc579160200282015b828111156119cc57825182546001600160a01b0319166001600160a01b03909116178255602090920191600190910190611997565b506119d8929150611a67565b5090565b828054600181600116156101000203166002900490600052602060002090601f016020900481019282601f10611a1d5782800160ff19823516178555611a4a565b82800160010185558215611a4a579182015b82811115611a4a578235825591602001919060010190611a2f565b506119d89291505b5b808211156119d85760008155600101611a53565b5b808211156119d85780546001600160a01b0319168155600101611a68565b80356116468161244c565b600060208284031215611aa2578081fd5b813561164381612437565b600080600080600060a08688031215611ac4578081fd5b8535611acf81612437565b94506020860135611adf81612437565b93506040860135611aef81612437565b92506060860135611aff81612437565b949793965091946080013592915050565b60008060408385031215611b22578182fd5b8235611b2d81612437565b946020939093013593505050565b600080600060608486031215611b4f578283fd5b8335611b5a81612437565b9250602084013591506040840135611b7181612437565b809150509250925092565b600080600080600080600080610100898b031215611b98578283fd5b88356001600160401b03811115611bad578384fd5b8901601f81018b13611bbd578384fd5b8035611bd0611bcb826123dc565b6123b6565b80828252602080830192508085018f828387028801011115611bf0578889fd5b8895505b84861015611c1b578035611c0781612437565b845260019590950194928101928101611bf4565b50909b508c01359950505060408a013596505060608901359450611c428a60808b01611a86565b935060a08901359250611c588a60c08b01611a86565b9150611c678a60e08b01611a86565b90509295985092959890939650565b60008060208385031215611c88578182fd5b82356001600160401b0380821115611c9e578384fd5b818501915085601f830112611cb1578384fd5b813581811115611cbf578485fd5b8660208083028501011115611cd2578485fd5b60209290920196919550909350505050565b60006020808385031215611cf6578182fd5b82356001600160401b03811115611d0b578283fd5b8301601f81018513611d1b578283fd5b8035611d29611bcb826123dc565b8181528381019083850185840285018601891015611d45578687fd5b8694505b83851015611d67578035835260019490940193918501918501611d49565b50979650505050505050565b600060208284031215611d84578081fd5b81516116438161244c565b600060208284031215611da0578081fd5b5035919050565b600060208284031215611db8578081fd5b5051919050565b60008060008060808587031215611dd4578081fd5b8435935060208501359250604085013591506060850135611df48161244c565b939692955090935050565b6001600160a01b03169052565b6000815180845260208085019450808401835b83811015611e445781516001600160a01b031687529582019590820190600101611e1f565b509495945050505050565b15159052565b60008251611e67818460208701612407565b9190910192915050565b90565b6001600160a01b0391909116815260200190565b6001600160a01b038a1681526020810189905261012060408201819052600090611eb48382018b611e0c565b60608401999099525050608081019590955260a085019390935290151560c0840152151560e0830152610100909101529392505050565b6001600160a01b038a8116825260208083018b9052610120604084018190528a5490840181905260008b815282812090936101408601939192909190855b81811015611f4e57611f3e8685875416611dff565b9482019460019485019401611f29565b5050505050809150508760608301528660808301528560a0830152611f7660c0830186611e4f565b611f8360e0830185611e4f565b826101008301529a9950505050505050505050565b6001600160a01b039485168152928416602084015292166040820152606081019190915260800190565b6001600160a01b0393841681529183166020830152909116604082015260600190565b6001600160a01b03998a16815297891660208901529590971660408701526060860193909352608085019190915260a0840152151560c083015291151560e08201526101008101919091526101200190565b6001600160a01b03929092168252602082015260400190565b6001600160a01b038b168152602081018a90526101406040820181905260009061207c8382018c611e0c565b606084019a909a525050608081019690965260a086019490945260c0850192909252151560e08401521515610100830152610120909101529392505050565b6001600160a01b0397909716875260208701959095526040860193909352606085019190915215156080840152151560a083015260c082015260e00190565b60006040825261210d6040830185611e0c565b90508260208301529392505050565b901515815260200190565b6000602082528251806020840152612146816040850160208701612407565b601f01601f19169190910160400192915050565b60006020808301818452828554600180821660008114612181576001811461219f576121d7565b60028304607f16855260ff19831660408901526060880193506121d7565b600283048086526121af8a6123fb565b885b828110156121cd5781548b8201604001529084019088016121b1565b8a01604001955050505b5091979650505050505050565b6020808252601b908201527a536166654d6174683a206164646974696f6e206f766572666c6f7760281b604082015260600190565b6020808252603a908201527f416464726573733a20756e61626c6520746f2073656e642076616c75652c20726040820152791958da5c1a595b9d081b585e481a185d99481c995d995c9d195960321b606082015260800190565b6020808252601d908201527f416464726573733a20696e73756666696369656e742062616c616e6365000000604082015260600190565b6020808252601d908201527f416464726573733a2063616c6c20746f206e6f6e2d636f6e7472616374000000604082015260600190565b6020808252602a908201527f5361666545524332303a204552433230206f7065726174696f6e20646964206e6040820152691bdd081cdd58d8d9595960b21b606082015260800190565b6020808252601f908201527f5265656e7472616e637947756172643a207265656e7472616e742063616c6c00604082015260600190565b90815260200190565b6000808335601e19843603018112612381578283fd5b8301803591506001600160401b0382111561239a578283fd5b6020019150368190038213156123af57600080fd5b9250929050565b6040518181016001600160401b03811182821017156123d457600080fd5b604052919050565b60006001600160401b038211156123f1578081fd5b5060209081020190565b60009081526020902090565b60005b8381101561242257818101518382015260200161240a565b83811115612431576000848401525b50505050565b6001600160a01b038116811461197457600080fd5b801515811461197457600080fdfea164736f6c634300060c000a",
  "linkReferences": {},
  "deployedLinkReferences": {}
}