{
  "_format": "hh-sol-artifact-1",
  "contractName": "OrderBookReader",
  "sourceName": "contracts/peripherals/OrderBookReader.sol",
  "abi": [
    {
      "inputs": [
        {
          "internalType": "address payable",
          "name": "_orderBookAddress",
          "type": "address"
        },
        {
          "internalType": "address",
          "name": "_account",
          "type": "address"
        },
        {
          "internalType": "uint256[]",
          "name": "_indices",
          "type": "uint256[]"
        }
      ],
      "name": "getDecreaseOrders",
      "outputs": [
        {
          "internalType": "uint256[]",
          "name": "",
          "type": "uint256[]"
        },
        {
          "internalType": "address[]",
          "name": "",
          "type": "address[]"
        }
      ],
      "stateMutability": "view",
      "type": "function"
    },
    {
      "inputs": [
        {
          "internalType": "address payable",
          "name": "_orderBookAddress",
          "type": "address"
        },
        {
          "internalType": "address",
          "name": "_account",
          "type": "address"
        },
        {
          "internalType": "uint256[]",
          "name": "_indices",
          "type": "uint256[]"
        }
      ],
      "name": "getIncreaseOrders",
      "outputs": [
        {
          "internalType": "uint256[]",
          "name": "",
          "type": "uint256[]"
        },
        {
          "internalType": "address[]",
          "name": "",
          "type": "address[]"
        }
      ],
      "stateMutability": "view",
      "type": "function"
    },
    {
      "inputs": [
        {
          "internalType": "address payable",
          "name": "_orderBookAddress",
          "type": "address"
        },
        {
          "internalType": "address",
          "name": "_account",
          "type": "address"
        },
        {
          "internalType": "uint256[]",
          "name": "_indices",
          "type": "uint256[]"
        }
      ],
      "name": "getSwapOrders",
      "outputs": [
        {
          "internalType": "uint256[]",
          "name": "",
          "type": "uint256[]"
        },
        {
          "internalType": "address[]",
          "name": "",
          "type": "address[]"
        }
      ],
      "stateMutability": "view",
      "type": "function"
    }
  ],
  "bytecode": "0x608060405234801561001057600080fd5b50610e46806100206000396000f3fe608060405234801561001057600080fd5b50600436106100415760003560e01c80630ce933b9146100465780632e18146914610199578063c38ccd5014610253575b600080fd5b6101006004803603606081101561005c57600080fd5b6001600160a01b038235811692602081013590911691810190606081016040820135600160201b81111561008f57600080fd5b8201836020820111156100a157600080fd5b803590602001918460208302840111600160201b831117156100c257600080fd5b91908080602002602001604051908101604052809392919081815260200183836020028082843760009201919091525092955061030d945050505050565b604051808060200180602001838103835285818151815260200191508051906020019060200280838360005b8381101561014457818101518382015260200161012c565b50505050905001838103825284818151815260200191508051906020019060200280838360005b8381101561018357818101518382015260200161016b565b5050505090500194505050505060405180910390f35b610100600480360360608110156101af57600080fd5b6001600160a01b038235811692602081013590911691810190606081016040820135600160201b8111156101e257600080fd5b8201836020820111156101f457600080fd5b803590602001918460208302840111600160201b8311171561021557600080fd5b9190808060200260200160405190810160405280939291908181526020018383602002808284376000920191909152509295506106bd945050505050565b6101006004803603606081101561026957600080fd5b6001600160a01b038235811692602081013590911691810190606081016040820135600160201b81111561029c57600080fd5b8201836020820111156102ae57600080fd5b803590602001918460208302840111600160201b831117156102cf57600080fd5b919080806020026020016040519081016040528093929190818152602001838360200280828437600092019190915250929550610a5f945050505050565b606080610318610e01565b6040518060a001604052806000815260200160008152602001866001600160a01b031681526020016005815260200160038152509050606084518260600151026001600160401b038111801561036d57600080fd5b50604051908082528060200260200182016040528015610397578160200160208202803683370190505b509050606085518360800151026001600160401b03811180156103b957600080fd5b506040519080825280602002602001820160405280156103e3578160200160208202803683370190505b509050875b8651845110156106af578684600001518151811061040257fe5b6020026020010151846020018181525050600080600080600080600080886001600160a01b031663026032ee8d604001518e602001516040518363ffffffff1660e01b815260040180836001600160a01b03168152602001828152602001925050506101206040518083038186803b15801561047d57600080fd5b505afa158015610491573d6000803e3d6000fd5b505050506040513d6101208110156104a857600080fd5b810190808051906020019092919080519060200190929190805190602001909291908051906020019092919080519060200190929190805190602001909291908051906020019092919080519060200190929190805190602001909291905050505097509750975097509750975097509750858b8d606001518e60000151028151811061053157fe5b602002602001018181525050838b8d606001518e60000151026001018151811061055757fe5b6020026020010181815250508261056f576000610572565b60015b60ff168b8d606001518e60000151026002018151811061058e57fe5b602002602001018181525050818b8d606001518e6000015102600301815181106105b457fe5b602002602001018181525050806105cc5760006105cf565b60015b60ff168b8d606001518e6000015102600401815181106105eb57fe5b602002602001018181525050878a8d608001518e60000151028151811061060e57fe5b60200260200101906001600160a01b031690816001600160a01b031681525050848a8d608001518e60000151026001018151811061064857fe5b60200260200101906001600160a01b031690816001600160a01b031681525050868a8d608001518e60000151026002018151811061068257fe5b6001600160a01b0390921660209283029190910190910152505089516001018a52506103e8945050505050565b509097909650945050505050565b6060806106c8610e01565b6040518060a001604052806000815260200160008152602001866001600160a01b031681526020016005815260200160038152509050606084518260600151026001600160401b038111801561071d57600080fd5b50604051908082528060200260200182016040528015610747578160200160208202803683370190505b509050606085518360800151026001600160401b038111801561076957600080fd5b50604051908082528060200260200182016040528015610793578160200160208202803683370190505b509050875b8651845110156106af57868460000151815181106107b257fe5b6020026020010151846020018181525050600080600080600080600080886001600160a01b031663d0d40cd68d604001518e602001516040518363ffffffff1660e01b815260040180836001600160a01b03168152602001828152602001925050506101206040518083038186803b15801561082d57600080fd5b505afa158015610841573d6000803e3d6000fd5b505050506040513d61012081101561085857600080fd5b810190808051906020019092919080519060200190929190805190602001909291908051906020019092919080519060200190929190805190602001909291908051906020019092919080519060200190929190805190602001909291905050505097509750975097509750975097509750848b8d606001518e6000015102815181106108e157fe5b602002602001018181525050838b8d606001518e60000151026001018151811061090757fe5b602002602001018181525050828b8d606001518e60000151026002018151811061092d57fe5b60200260200101818152505081610945576000610948565b60015b60ff168b8d606001518e60000151026003018151811061096457fe5b6020026020010181815250508061097c57600061097f565b60015b60ff168b8d606001518e60000151026004018151811061099b57fe5b602002602001018181525050878a8d608001518e6000015102815181106109be57fe5b60200260200101906001600160a01b031690816001600160a01b031681525050868a8d608001518e6000015102600101815181106109f857fe5b60200260200101906001600160a01b031690816001600160a01b031681525050858a8d608001518e600001510260020181518110610a3257fe5b6001600160a01b0390921660209283029190910190910152505089516001018a5250610798945050505050565b606080610a6a610e01565b6040518060a001604052806000815260200160008152602001866001600160a01b031681526020016005815260200160038152509050606084518260600151026001600160401b0381118015610abf57600080fd5b50604051908082528060200260200182016040528015610ae9578160200160208202803683370190505b509050606085518360800151026001600160401b0381118015610b0b57600080fd5b50604051908082528060200260200182016040528015610b35578160200160208202803683370190505b509050875b8651845110156106af5786846000015181518110610b5457fe5b6020026020010151846020018181525050600080600080600080600080886001600160a01b031663d3bab1d18d604001518e602001516040518363ffffffff1660e01b815260040180836001600160a01b03168152602001828152602001925050506101206040518083038186803b158015610bcf57600080fd5b505afa158015610be3573d6000803e3d6000fd5b505050506040513d610120811015610bfa57600080fd5b810190808051906020019092919080519060200190929190805190602001909291908051906020019092919080519060200190929190805190602001909291908051906020019092919080519060200190929190805190602001909291905050505097509750975097509750975097509750868b8d606001518e600001510281518110610c8357fe5b602002602001018181525050838b8d606001518e600001510260010181518110610ca957fe5b60200260200101818152505082610cc1576000610cc4565b60015b60ff168b8d606001518e600001510260020181518110610ce057fe5b602002602001018181525050818b8d606001518e600001510260030181518110610d0657fe5b60200260200101818152505080610d1e576000610d21565b60015b60ff168b8d606001518e600001510260040181518110610d3d57fe5b602002602001018181525050878a8d608001518e600001510281518110610d6057fe5b60200260200101906001600160a01b031690816001600160a01b031681525050858a8d608001518e600001510260010181518110610d9a57fe5b60200260200101906001600160a01b031690816001600160a01b031681525050848a8d608001518e600001510260020181518110610dd457fe5b6001600160a01b0390921660209283029190910190910152505089516001018a5250610b3a945050505050565b6040518060a00160405280600081526020016000815260200160006001600160a01b031681526020016000815260200160008152509056fea164736f6c634300060c000a",
  "linkReferences": {},
  "deployedLinkReferences": {}
}