{
  "_format": "hh-sol-artifact-1",
  "contractName": "PositionManager",
  "sourceName": "contracts/core/PositionManager.sol",
  "abi": [
    {
      "inputs": [
        {
          "internalType": "address",
          "name": "_vault",
          "type": "address"
        },
        {
          "internalType": "address",
          "name": "_router",
          "type": "address"
        },
        {
          "internalType": "address",
          "name": "_shortsTracker",
          "type": "address"
        },
        {
          "internalType": "address",
          "name": "_weth",
          "type": "address"
        },
        {
          "internalType": "uint256",
          "name": "_depositFee",
          "type": "uint256"
        },
        {
          "internalType": "address",
          "name": "_orderBook",
          "type": "address"
        },
        {
          "internalType": "address",
          "name": "_orderBookSwap",
          "type": "address"
        }
      ],
      "stateMutability": "nonpayable",
      "type": "constructor"
    },
    {
      "anonymous": false,
      "inputs": [
        {
          "indexed": false,
          "internalType": "address",
          "name": "account",
          "type": "address"
        },
        {
          "indexed": false,
          "internalType": "uint256",
          "name": "sizeDelta",
          "type": "uint256"
        },
        {
          "indexed": false,
          "internalType": "uint256",
          "name": "marginFeeBasisPoints",
          "type": "uint256"
        },
        {
          "indexed": false,
          "internalType": "bytes32",
          "name": "referralCode",
          "type": "bytes32"
        },
        {
          "indexed": false,
          "internalType": "address",
          "name": "referrer",
          "type": "address"
        }
      ],
      "name": "DecreasePositionReferral",
      "type": "event"
    },
    {
      "anonymous": false,
      "inputs": [
        {
          "indexed": false,
          "internalType": "address",
          "name": "account",
          "type": "address"
        },
        {
          "indexed": false,
          "internalType": "uint256",
          "name": "sizeDelta",
          "type": "uint256"
        },
        {
          "indexed": false,
          "internalType": "uint256",
          "name": "marginFeeBasisPoints",
          "type": "uint256"
        },
        {
          "indexed": false,
          "internalType": "bytes32",
          "name": "referralCode",
          "type": "bytes32"
        },
        {
          "indexed": false,
          "internalType": "address",
          "name": "referrer",
          "type": "address"
        }
      ],
      "name": "IncreasePositionReferral",
      "type": "event"
    },
    {
      "anonymous": false,
      "inputs": [
        {
          "indexed": false,
          "internalType": "address",
          "name": "admin",
          "type": "address"
        }
      ],
      "name": "SetAdmin",
      "type": "event"
    },
    {
      "anonymous": false,
      "inputs": [
        {
          "indexed": false,
          "internalType": "uint256",
          "name": "depositFee",
          "type": "uint256"
        }
      ],
      "name": "SetDepositFee",
      "type": "event"
    },
    {
      "anonymous": false,
      "inputs": [
        {
          "indexed": false,
          "internalType": "bool",
          "name": "inLegacyMode",
          "type": "bool"
        }
      ],
      "name": "SetInLegacyMode",
      "type": "event"
    },
    {
      "anonymous": false,
      "inputs": [
        {
          "indexed": false,
          "internalType": "uint256",
          "name": "increasePositionBufferBps",
          "type": "uint256"
        }
      ],
      "name": "SetIncreasePositionBufferBps",
      "type": "event"
    },
    {
      "anonymous": false,
      "inputs": [
        {
          "indexed": true,
          "internalType": "address",
          "name": "account",
          "type": "address"
        },
        {
          "indexed": false,
          "internalType": "bool",
          "name": "isActive",
          "type": "bool"
        }
      ],
      "name": "SetLiquidator",
      "type": "event"
    },
    {
      "anonymous": false,
      "inputs": [
        {
          "indexed": false,
          "internalType": "address[]",
          "name": "tokens",
          "type": "address[]"
        },
        {
          "indexed": false,
          "internalType": "uint256[]",
          "name": "longSizes",
          "type": "uint256[]"
        },
        {
          "indexed": false,
          "internalType": "uint256[]",
          "name": "shortSizes",
          "type": "uint256[]"
        }
      ],
      "name": "SetMaxGlobalSizes",
      "type": "event"
    },
    {
      "anonymous": false,
      "inputs": [
        {
          "indexed": false,
          "internalType": "uint256",
          "name": "_minStayingOpenTime",
          "type": "uint256"
        }
      ],
      "name": "SetMinStayingOpenTime",
      "type": "event"
    },
    {
      "anonymous": false,
      "inputs": [
        {
          "indexed": false,
          "internalType": "address",
          "name": "orderBook",
          "type": "address"
        }
      ],
      "name": "SetOrderBook",
      "type": "event"
    },
    {
      "anonymous": false,
      "inputs": [
        {
          "indexed": false,
          "internalType": "address",
          "name": "orderBookSwap",
          "type": "address"
        }
      ],
      "name": "SetOrderBookSwap",
      "type": "event"
    },
    {
      "anonymous": false,
      "inputs": [
        {
          "indexed": true,
          "internalType": "address",
          "name": "account",
          "type": "address"
        },
        {
          "indexed": false,
          "internalType": "bool",
          "name": "isActive",
          "type": "bool"
        }
      ],
      "name": "SetOrderKeeper",
      "type": "event"
    },
    {
      "anonymous": false,
      "inputs": [
        {
          "indexed": false,
          "internalType": "address",
          "name": "account",
          "type": "address"
        },
        {
          "indexed": false,
          "internalType": "bool",
          "name": "isActive",
          "type": "bool"
        }
      ],
      "name": "SetPartner",
      "type": "event"
    },
    {
      "anonymous": false,
      "inputs": [
        {
          "indexed": false,
          "internalType": "address",
          "name": "account",
          "type": "address"
        },
        {
          "indexed": false,
          "internalType": "uint256",
          "name": "minTime",
          "type": "uint256"
        }
      ],
      "name": "SetPartnerMinStayingOpenTime",
      "type": "event"
    },
    {
      "anonymous": false,
      "inputs": [
        {
          "indexed": false,
          "internalType": "address",
          "name": "referralStorage",
          "type": "address"
        }
      ],
      "name": "SetReferralStorage",
      "type": "event"
    },
    {
      "anonymous": false,
      "inputs": [
        {
          "indexed": false,
          "internalType": "bool",
          "name": "shouldValidateIncreaseOrder",
          "type": "bool"
        }
      ],
      "name": "SetShouldValidateIncreaseOrder",
      "type": "event"
    },
    {
      "anonymous": false,
      "inputs": [
        {
          "indexed": false,
          "internalType": "address",
          "name": "token",
          "type": "address"
        },
        {
          "indexed": false,
          "internalType": "address",
          "name": "receiver",
          "type": "address"
        },
        {
          "indexed": false,
          "internalType": "uint256",
          "name": "amount",
          "type": "uint256"
        }
      ],
      "name": "WithdrawFees",
      "type": "event"
    },
    {
      "inputs": [],
      "name": "BASIS_POINTS_DIVISOR",
      "outputs": [
        {
          "internalType": "uint256",
          "name": "",
          "type": "uint256"
        }
      ],
      "stateMutability": "view",
      "type": "function"
    },
    {
      "inputs": [],
      "name": "admin",
      "outputs": [
        {
          "internalType": "address",
          "name": "",
          "type": "address"
        }
      ],
      "stateMutability": "view",
      "type": "function"
    },
    {
      "inputs": [
        {
          "internalType": "address",
          "name": "_token",
          "type": "address"
        },
        {
          "internalType": "address",
          "name": "_spender",
          "type": "address"
        },
        {
          "internalType": "uint256",
          "name": "_amount",
          "type": "uint256"
        }
      ],
      "name": "approve",
      "outputs": [],
      "stateMutability": "nonpayable",
      "type": "function"
    },
    {
      "inputs": [
        {
          "internalType": "address",
          "name": "_collateralToken",
          "type": "address"
        },
        {
          "internalType": "address",
          "name": "_indexToken",
          "type": "address"
        },
        {
          "internalType": "uint256",
          "name": "_collateralDelta",
          "type": "uint256"
        },
        {
          "internalType": "uint256",
          "name": "_sizeDelta",
          "type": "uint256"
        },
        {
          "internalType": "bool",
          "name": "_isLong",
          "type": "bool"
        },
        {
          "internalType": "address",
          "name": "_receiver",
          "type": "address"
        },
        {
          "internalType": "uint256",
          "name": "_price",
          "type": "uint256"
        }
      ],
      "name": "decreasePosition",
      "outputs": [],
      "stateMutability": "nonpayable",
      "type": "function"
    },
    {
      "inputs": [
        {
          "internalType": "address[]",
          "name": "_path",
          "type": "address[]"
        },
        {
          "internalType": "address",
          "name": "_indexToken",
          "type": "address"
        },
        {
          "internalType": "uint256",
          "name": "_collateralDelta",
          "type": "uint256"
        },
        {
          "internalType": "uint256",
          "name": "_sizeDelta",
          "type": "uint256"
        },
        {
          "internalType": "bool",
          "name": "_isLong",
          "type": "bool"
        },
        {
          "internalType": "address",
          "name": "_receiver",
          "type": "address"
        },
        {
          "internalType": "uint256",
          "name": "_price",
          "type": "uint256"
        },
        {
          "internalType": "uint256",
          "name": "_minOut",
          "type": "uint256"
        }
      ],
      "name": "decreasePositionAndSwap",
      "outputs": [],
      "stateMutability": "nonpayable",
      "type": "function"
    },
    {
      "inputs": [
        {
          "internalType": "address[]",
          "name": "_path",
          "type": "address[]"
        },
        {
          "internalType": "address",
          "name": "_indexToken",
          "type": "address"
        },
        {
          "internalType": "uint256",
          "name": "_collateralDelta",
          "type": "uint256"
        },
        {
          "internalType": "uint256",
          "name": "_sizeDelta",
          "type": "uint256"
        },
        {
          "internalType": "bool",
          "name": "_isLong",
          "type": "bool"
        },
        {
          "internalType": "address payable",
          "name": "_receiver",
          "type": "address"
        },
        {
          "internalType": "uint256",
          "name": "_price",
          "type": "uint256"
        },
        {
          "internalType": "uint256",
          "name": "_minOut",
          "type": "uint256"
        }
      ],
      "name": "decreasePositionAndSwapETH",
      "outputs": [],
      "stateMutability": "nonpayable",
      "type": "function"
    },
    {
      "inputs": [
        {
          "internalType": "address",
          "name": "_collateralToken",
          "type": "address"
        },
        {
          "internalType": "address",
          "name": "_indexToken",
          "type": "address"
        },
        {
          "internalType": "uint256",
          "name": "_collateralDelta",
          "type": "uint256"
        },
        {
          "internalType": "uint256",
          "name": "_sizeDelta",
          "type": "uint256"
        },
        {
          "internalType": "bool",
          "name": "_isLong",
          "type": "bool"
        },
        {
          "internalType": "address payable",
          "name": "_receiver",
          "type": "address"
        },
        {
          "internalType": "uint256",
          "name": "_price",
          "type": "uint256"
        }
      ],
      "name": "decreasePositionETH",
      "outputs": [],
      "stateMutability": "nonpayable",
      "type": "function"
    },
    {
      "inputs": [],
      "name": "depositFee",
      "outputs": [
        {
          "internalType": "uint256",
          "name": "",
          "type": "uint256"
        }
      ],
      "stateMutability": "view",
      "type": "function"
    },
    {
      "inputs": [
        {
          "internalType": "address",
          "name": "_account",
          "type": "address"
        },
        {
          "internalType": "uint256",
          "name": "_orderIndex",
          "type": "uint256"
        },
        {
          "internalType": "address payable",
          "name": "_feeReceiver",
          "type": "address"
        },
        {
          "internalType": "uint256",
          "name": "_trailingStopRefPrice",
          "type": "uint256"
        },
        {
          "internalType": "uint256",
          "name": "_trailingStopRefPriceTimestamp",
          "type": "uint256"
        }
      ],
      "name": "executeDecreaseOrder",
      "outputs": [],
      "stateMutability": "nonpayable",
      "type": "function"
    },
    {
      "inputs": [
        {
          "internalType": "address",
          "name": "_account",
          "type": "address"
        },
        {
          "internalType": "uint256",
          "name": "_orderIndex",
          "type": "uint256"
        },
        {
          "internalType": "address payable",
          "name": "_feeReceiver",
          "type": "address"
        }
      ],
      "name": "executeIncreaseOrder",
      "outputs": [],
      "stateMutability": "nonpayable",
      "type": "function"
    },
    {
      "inputs": [
        {
          "internalType": "address",
          "name": "_account",
          "type": "address"
        },
        {
          "internalType": "uint256",
          "name": "_orderIndex",
          "type": "uint256"
        },
        {
          "internalType": "address payable",
          "name": "_feeReceiver",
          "type": "address"
        }
      ],
      "name": "executeSwapOrder",
      "outputs": [],
      "stateMutability": "nonpayable",
      "type": "function"
    },
    {
      "inputs": [
        {
          "internalType": "address",
          "name": "",
          "type": "address"
        }
      ],
      "name": "feeReserves",
      "outputs": [
        {
          "internalType": "uint256",
          "name": "",
          "type": "uint256"
        }
      ],
      "stateMutability": "view",
      "type": "function"
    },
    {
      "inputs": [],
      "name": "gov",
      "outputs": [
        {
          "internalType": "address",
          "name": "",
          "type": "address"
        }
      ],
      "stateMutability": "view",
      "type": "function"
    },
    {
      "inputs": [],
      "name": "inLegacyMode",
      "outputs": [
        {
          "internalType": "bool",
          "name": "",
          "type": "bool"
        }
      ],
      "stateMutability": "view",
      "type": "function"
    },
    {
      "inputs": [
        {
          "internalType": "address[]",
          "name": "_path",
          "type": "address[]"
        },
        {
          "internalType": "address",
          "name": "_indexToken",
          "type": "address"
        },
        {
          "internalType": "uint256",
          "name": "_amountIn",
          "type": "uint256"
        },
        {
          "internalType": "uint256",
          "name": "_minOut",
          "type": "uint256"
        },
        {
          "internalType": "uint256",
          "name": "_sizeDelta",
          "type": "uint256"
        },
        {
          "internalType": "bool",
          "name": "_isLong",
          "type": "bool"
        },
        {
          "internalType": "uint256",
          "name": "_price",
          "type": "uint256"
        },
        {
          "internalType": "bytes32",
          "name": "_referralCode",
          "type": "bytes32"
        }
      ],
      "name": "increasePosition",
      "outputs": [],
      "stateMutability": "nonpayable",
      "type": "function"
    },
    {
      "inputs": [],
      "name": "increasePositionBufferBps",
      "outputs": [
        {
          "internalType": "uint256",
          "name": "",
          "type": "uint256"
        }
      ],
      "stateMutability": "view",
      "type": "function"
    },
    {
      "inputs": [
        {
          "internalType": "address[]",
          "name": "_path",
          "type": "address[]"
        },
        {
          "internalType": "address",
          "name": "_indexToken",
          "type": "address"
        },
        {
          "internalType": "uint256",
          "name": "_minOut",
          "type": "uint256"
        },
        {
          "internalType": "uint256",
          "name": "_sizeDelta",
          "type": "uint256"
        },
        {
          "internalType": "bool",
          "name": "_isLong",
          "type": "bool"
        },
        {
          "internalType": "uint256",
          "name": "_price",
          "type": "uint256"
        },
        {
          "internalType": "bytes32",
          "name": "_referralCode",
          "type": "bytes32"
        }
      ],
      "name": "increasePositionETH",
      "outputs": [],
      "stateMutability": "payable",
      "type": "function"
    },
    {
      "inputs": [
        {
          "internalType": "address",
          "name": "",
          "type": "address"
        }
      ],
      "name": "isLiquidator",
      "outputs": [
        {
          "internalType": "bool",
          "name": "",
          "type": "bool"
        }
      ],
      "stateMutability": "view",
      "type": "function"
    },
    {
      "inputs": [
        {
          "internalType": "address",
          "name": "",
          "type": "address"
        }
      ],
      "name": "isOrderKeeper",
      "outputs": [
        {
          "internalType": "bool",
          "name": "",
          "type": "bool"
        }
      ],
      "stateMutability": "view",
      "type": "function"
    },
    {
      "inputs": [
        {
          "internalType": "address",
          "name": "",
          "type": "address"
        }
      ],
      "name": "isPartner",
      "outputs": [
        {
          "internalType": "bool",
          "name": "",
          "type": "bool"
        }
      ],
      "stateMutability": "view",
      "type": "function"
    },
    {
      "inputs": [
        {
          "internalType": "address",
          "name": "_account",
          "type": "address"
        },
        {
          "internalType": "address",
          "name": "_collateralToken",
          "type": "address"
        },
        {
          "internalType": "address",
          "name": "_indexToken",
          "type": "address"
        },
        {
          "internalType": "bool",
          "name": "_isLong",
          "type": "bool"
        },
        {
          "internalType": "address",
          "name": "_feeReceiver",
          "type": "address"
        }
      ],
      "name": "liquidatePosition",
      "outputs": [],
      "stateMutability": "nonpayable",
      "type": "function"
    },
    {
      "inputs": [
        {
          "internalType": "address",
          "name": "",
          "type": "address"
        }
      ],
      "name": "maxGlobalLongSizes",
      "outputs": [
        {
          "internalType": "uint256",
          "name": "",
          "type": "uint256"
        }
      ],
      "stateMutability": "view",
      "type": "function"
    },
    {
      "inputs": [
        {
          "internalType": "address",
          "name": "",
          "type": "address"
        }
      ],
      "name": "maxGlobalShortSizes",
      "outputs": [
        {
          "internalType": "uint256",
          "name": "",
          "type": "uint256"
        }
      ],
      "stateMutability": "view",
      "type": "function"
    },
    {
      "inputs": [],
      "name": "minStayingOpenTime",
      "outputs": [
        {
          "internalType": "uint256",
          "name": "",
          "type": "uint256"
        }
      ],
      "stateMutability": "view",
      "type": "function"
    },
    {
      "inputs": [],
      "name": "orderBook",
      "outputs": [
        {
          "internalType": "address",
          "name": "",
          "type": "address"
        }
      ],
      "stateMutability": "view",
      "type": "function"
    },
    {
      "inputs": [],
      "name": "orderBookSwap",
      "outputs": [
        {
          "internalType": "address",
          "name": "",
          "type": "address"
        }
      ],
      "stateMutability": "view",
      "type": "function"
    },
    {
      "inputs": [
        {
          "internalType": "address",
          "name": "",
          "type": "address"
        }
      ],
      "name": "partnerMinStayingOpenTime",
      "outputs": [
        {
          "internalType": "uint256",
          "name": "",
          "type": "uint256"
        }
      ],
      "stateMutability": "view",
      "type": "function"
    },
    {
      "inputs": [],
      "name": "positionUtils",
      "outputs": [
        {
          "internalType": "contract IPositionUtils",
          "name": "",
          "type": "address"
        }
      ],
      "stateMutability": "view",
      "type": "function"
    },
    {
      "inputs": [],
      "name": "referralStorage",
      "outputs": [
        {
          "internalType": "address",
          "name": "",
          "type": "address"
        }
      ],
      "stateMutability": "view",
      "type": "function"
    },
    {
      "inputs": [],
      "name": "router",
      "outputs": [
        {
          "internalType": "address",
          "name": "",
          "type": "address"
        }
      ],
      "stateMutability": "view",
      "type": "function"
    },
    {
      "inputs": [
        {
          "internalType": "address payable",
          "name": "_receiver",
          "type": "address"
        },
        {
          "internalType": "uint256",
          "name": "_amount",
          "type": "uint256"
        }
      ],
      "name": "sendValue",
      "outputs": [],
      "stateMutability": "nonpayable",
      "type": "function"
    },
    {
      "inputs": [
        {
          "internalType": "address",
          "name": "_admin",
          "type": "address"
        }
      ],
      "name": "setAdmin",
      "outputs": [],
      "stateMutability": "nonpayable",
      "type": "function"
    },
    {
      "inputs": [
        {
          "internalType": "uint256",
          "name": "_depositFee",
          "type": "uint256"
        }
      ],
      "name": "setDepositFee",
      "outputs": [],
      "stateMutability": "nonpayable",
      "type": "function"
    },
    {
      "inputs": [
        {
          "internalType": "address",
          "name": "_gov",
          "type": "address"
        }
      ],
      "name": "setGov",
      "outputs": [],
      "stateMutability": "nonpayable",
      "type": "function"
    },
    {
      "inputs": [
        {
          "internalType": "bool",
          "name": "_inLegacyMode",
          "type": "bool"
        }
      ],
      "name": "setInLegacyMode",
      "outputs": [],
      "stateMutability": "nonpayable",
      "type": "function"
    },
    {
      "inputs": [
        {
          "internalType": "uint256",
          "name": "_increasePositionBufferBps",
          "type": "uint256"
        }
      ],
      "name": "setIncreasePositionBufferBps",
      "outputs": [],
      "stateMutability": "nonpayable",
      "type": "function"
    },
    {
      "inputs": [
        {
          "internalType": "address",
          "name": "_account",
          "type": "address"
        },
        {
          "internalType": "bool",
          "name": "_isActive",
          "type": "bool"
        }
      ],
      "name": "setLiquidator",
      "outputs": [],
      "stateMutability": "nonpayable",
      "type": "function"
    },
    {
      "inputs": [
        {
          "internalType": "address[]",
          "name": "_tokens",
          "type": "address[]"
        },
        {
          "internalType": "uint256[]",
          "name": "_longSizes",
          "type": "uint256[]"
        },
        {
          "internalType": "uint256[]",
          "name": "_shortSizes",
          "type": "uint256[]"
        }
      ],
      "name": "setMaxGlobalSizes",
      "outputs": [],
      "stateMutability": "nonpayable",
      "type": "function"
    },
    {
      "inputs": [
        {
          "internalType": "uint256",
          "name": "_minStayingOpenTime",
          "type": "uint256"
        }
      ],
      "name": "setMinStayingOpenTime",
      "outputs": [],
      "stateMutability": "nonpayable",
      "type": "function"
    },
    {
      "inputs": [
        {
          "internalType": "address",
          "name": "_orderBook",
          "type": "address"
        }
      ],
      "name": "setOrderBook",
      "outputs": [],
      "stateMutability": "nonpayable",
      "type": "function"
    },
    {
      "inputs": [
        {
          "internalType": "address",
          "name": "_orderBookSwap",
          "type": "address"
        }
      ],
      "name": "setOrderBookSwap",
      "outputs": [],
      "stateMutability": "nonpayable",
      "type": "function"
    },
    {
      "inputs": [
        {
          "internalType": "address",
          "name": "_account",
          "type": "address"
        },
        {
          "internalType": "bool",
          "name": "_isActive",
          "type": "bool"
        }
      ],
      "name": "setOrderKeeper",
      "outputs": [],
      "stateMutability": "nonpayable",
      "type": "function"
    },
    {
      "inputs": [
        {
          "internalType": "address",
          "name": "_account",
          "type": "address"
        },
        {
          "internalType": "bool",
          "name": "_isActive",
          "type": "bool"
        }
      ],
      "name": "setPartner",
      "outputs": [],
      "stateMutability": "nonpayable",
      "type": "function"
    },
    {
      "inputs": [
        {
          "internalType": "address",
          "name": "_account",
          "type": "address"
        },
        {
          "internalType": "uint256",
          "name": "_minTime",
          "type": "uint256"
        }
      ],
      "name": "setPartnerMinStayingOpenTime",
      "outputs": [],
      "stateMutability": "nonpayable",
      "type": "function"
    },
    {
      "inputs": [
        {
          "internalType": "contract IPositionUtils",
          "name": "_positionUtils",
          "type": "address"
        }
      ],
      "name": "setPositionUtils",
      "outputs": [],
      "stateMutability": "nonpayable",
      "type": "function"
    },
    {
      "inputs": [
        {
          "internalType": "address",
          "name": "_referralStorage",
          "type": "address"
        }
      ],
      "name": "setReferralStorage",
      "outputs": [],
      "stateMutability": "nonpayable",
      "type": "function"
    },
    {
      "inputs": [
        {
          "internalType": "bool",
          "name": "_shouldValidateIncreaseOrder",
          "type": "bool"
        }
      ],
      "name": "setShouldValidateIncreaseOrder",
      "outputs": [],
      "stateMutability": "nonpayable",
      "type": "function"
    },
    {
      "inputs": [],
      "name": "shortsTracker",
      "outputs": [
        {
          "internalType": "address",
          "name": "",
          "type": "address"
        }
      ],
      "stateMutability": "view",
      "type": "function"
    },
    {
      "inputs": [],
      "name": "shouldValidateIncreaseOrder",
      "outputs": [
        {
          "internalType": "bool",
          "name": "",
          "type": "bool"
        }
      ],
      "stateMutability": "view",
      "type": "function"
    },
    {
      "inputs": [],
      "name": "vault",
      "outputs": [
        {
          "internalType": "address",
          "name": "",
          "type": "address"
        }
      ],
      "stateMutability": "view",
      "type": "function"
    },
    {
      "inputs": [],
      "name": "weth",
      "outputs": [
        {
          "internalType": "address",
          "name": "",
          "type": "address"
        }
      ],
      "stateMutability": "view",
      "type": "function"
    },
    {
      "inputs": [
        {
          "internalType": "address",
          "name": "_token",
          "type": "address"
        },
        {
          "internalType": "address",
          "name": "_receiver",
          "type": "address"
        }
      ],
      "name": "withdrawFees",
      "outputs": [],
      "stateMutability": "nonpayable",
      "type": "function"
    },
    {
      "stateMutability": "payable",
      "type": "receive"
    }
  ],
  "bytecode": "0x60806040526064600855600f805460ff60a81b1916600160a81b17905561038460105534801561002e57600080fd5b5060405162004b6238038062004b62833981810160405260e081101561005357600080fd5b508051602082015160408301516060840151608085015160a086015160c090960151600160008181558154336001600160a01b031991821681179093556003805482166001600160a01b039a8b16179055600580548216988a169890981790975560068054881695891695909517909455600792909255600480548616948716949094179093556002805485169091179055600e8054841695851695909517909455600f80549092169216919091179055614a4d9081906200011590396000f3fe6080604052600436106102525760003560e01c80626cc35e146102b357806307c7edc3146102e45780631045c74e14610327578063126082cf1461036c57806312d43a5114610381578063151cfeb3146103965780631b904359146103cf5780631ce9cb8f146103fb5780631e2615381461042e5780631e9f724b146104695780632152336a1461054657806321acf65914610579578063233bfe3b146105b457806324a084df146105de5780632be015d3146106175780633039e37f1461064a5780633833f5f51461072a5780633fc8cef314610771578063430ed37c146107865780634453a374146107e55780634584bd4b14610820578063490ae210146108355780634bbd44eb1461085f578063529a356f146108925780635fc8500e146108c5578063657bc5d0146109a557806367a52793146109ba578063704b6c02146109cf578063776af5ba14610a025780638541a68114610a175780638c0f9aac14610a4157806390205d8c14610a745780639698d25a14610ad357806398d1e03a14610b065780639a1598c814610b1b5780639c95332f14610b4e578063a6c96d8114610b7a578063ae4d7f9a14610c43578063b2f02eba14610c76578063b71a44b414610c8b578063bbede3fb14610ca0578063cfad57a214610ced578063d38ab51914610d20578063d4ca83f914610d63578063d95423e614610d78578063de2ea94814610d8d578063e1f21c6714610de2578063ef12c67e14610e25578063f255527814610fd7578063f851a44014611012578063f887ea4014611027578063fbfa77cf1461103c576102ae565b366102ae576006546001600160a01b031633146102ac576040805162461bcd60e51b81526020600482015260136024820152722128269d1034b73b30b634b21039b2b73232b960691b604482015290519081900360640190fd5b005b600080fd5b3480156102bf57600080fd5b506102c8611051565b604080516001600160a01b039092168252519081900360200190f35b3480156102f057600080fd5b506102ac6004803603606081101561030757600080fd5b506001600160a01b03813581169160208101359160409091013516611060565b34801561033357600080fd5b5061035a6004803603602081101561034a57600080fd5b50356001600160a01b031661112c565b60408051918252519081900360200190f35b34801561037857600080fd5b5061035a61113e565b34801561038d57600080fd5b506102c8611144565b3480156103a257600080fd5b506102ac600480360360408110156103b957600080fd5b506001600160a01b038135169060200135611153565b3480156103db57600080fd5b506102ac600480360360208110156103f257600080fd5b503515156111fc565b34801561040757600080fd5b5061035a6004803603602081101561041e57600080fd5b50356001600160a01b031661129f565b34801561043a57600080fd5b506102ac6004803603604081101561045157600080fd5b506001600160a01b03813516906020013515156112b1565b34801561047557600080fd5b506102ac600480360361010081101561048d57600080fd5b810190602081018135600160201b8111156104a757600080fd5b8201836020820111156104b957600080fd5b803590602001918460208302840111600160201b831117156104da57600080fd5b919080806020026020016040519081016040528093929190818152602001838360200280828437600092019190915250929550506001600160a01b0383351693505050602081013590604081013590606081013590608081013515159060a08101359060c00135611361565b34801561055257600080fd5b506102ac6004803603602081101561056957600080fd5b50356001600160a01b031661166a565b34801561058557600080fd5b506102ac6004803603604081101561059c57600080fd5b506001600160a01b0381351690602001351515611694565b3480156105c057600080fd5b506102ac600480360360208110156105d757600080fd5b5035611748565b3480156105ea57600080fd5b506102ac6004803603604081101561060157600080fd5b506001600160a01b038135169060200135611755565b34801561062357600080fd5b506102ac6004803603602081101561063a57600080fd5b50356001600160a01b03166117b9565b34801561065657600080fd5b506102ac600480360361010081101561066e57600080fd5b810190602081018135600160201b81111561068857600080fd5b82018360208201111561069a57600080fd5b803590602001918460208302840111600160201b831117156106bb57600080fd5b919080806020026020016040519081016040528093929190818152602001838360200280828437600092019190915250929550505081356001600160a01b0390811693506020830135926040810135925060608101351515916080820135169060a08101359060c0013561185d565b34801561073657600080fd5b5061075d6004803603602081101561074d57600080fd5b50356001600160a01b0316611a58565b604080519115158252519081900360200190f35b34801561077d57600080fd5b506102c8611a6d565b34801561079257600080fd5b506102ac600480360360e08110156107a957600080fd5b506001600160a01b0381358116916020810135821691604082013591606081013591608082013515159160a08101359091169060c00135611a7c565b3480156107f157600080fd5b506102ac6004803603604081101561080857600080fd5b506001600160a01b0381351690602001351515611ba2565b34801561082c57600080fd5b5061075d611c52565b34801561084157600080fd5b506102ac6004803603602081101561085857600080fd5b5035611c62565b34801561086b57600080fd5b5061035a6004803603602081101561088257600080fd5b50356001600160a01b0316611c6f565b34801561089e57600080fd5b5061075d600480360360208110156108b557600080fd5b50356001600160a01b0316611c81565b3480156108d157600080fd5b506102ac60048036036101008110156108e957600080fd5b810190602081018135600160201b81111561090357600080fd5b82018360208201111561091557600080fd5b803590602001918460208302840111600160201b8311171561093657600080fd5b919080806020026020016040519081016040528093929190818152602001838360200280828437600092019190915250929550505081356001600160a01b0390811693506020830135926040810135925060608101351515916080820135169060a08101359060c00135611c96565b3480156109b157600080fd5b506102c8611dde565b3480156109c657600080fd5b5061035a611ded565b3480156109db57600080fd5b506102ac600480360360208110156109f257600080fd5b50356001600160a01b0316611df3565b348015610a0e57600080fd5b506102c8611e94565b348015610a2357600080fd5b506102ac60048036036020811015610a3a57600080fd5b5035611ea3565b348015610a4d57600080fd5b5061075d60048036036020811015610a6457600080fd5b50356001600160a01b0316611f2e565b348015610a8057600080fd5b506102ac600480360360e0811015610a9757600080fd5b506001600160a01b0381358116916020810135821691604082013591606081013591608082013515159160a08101359091169060c00135611f43565b348015610adf57600080fd5b5061035a60048036036020811015610af657600080fd5b50356001600160a01b031661200f565b348015610b1257600080fd5b5061035a612021565b348015610b2757600080fd5b506102ac60048036036020811015610b3e57600080fd5b50356001600160a01b0316612027565b348015610b5a57600080fd5b506102ac60048036036020811015610b7157600080fd5b503515156120cb565b6102ac600480360360e0811015610b9057600080fd5b810190602081018135600160201b811115610baa57600080fd5b820183602082011115610bbc57600080fd5b803590602001918460208302840111600160201b83111715610bdd57600080fd5b919080806020026020016040519081016040528093929190818152602001838360200280828437600092019190915250929550506001600160a01b0383351693505050602081013590604081013590606081013515159060808101359060a0013561216e565b348015610c4f57600080fd5b506102ac60048036036020811015610c6657600080fd5b50356001600160a01b0316612397565b348015610c8257600080fd5b506102c86123f3565b348015610c9757600080fd5b5061035a612402565b348015610cac57600080fd5b506102ac600480360360a0811015610cc357600080fd5b506001600160a01b0381358116916020810135916040820135169060608101359060800135612408565b348015610cf957600080fd5b506102ac60048036036020811015610d1057600080fd5b50356001600160a01b03166126bf565b348015610d2c57600080fd5b506102ac60048036036060811015610d4357600080fd5b506001600160a01b0381358116916020810135916040909101351661272e565b348015610d6f57600080fd5b5061075d612963565b348015610d8457600080fd5b506102c8612973565b348015610d9957600080fd5b506102ac600480360360a0811015610db057600080fd5b506001600160a01b03813581169160208101358216916040820135811691606081013515159160809091013516612982565b348015610dee57600080fd5b506102ac60048036036060811015610e0557600080fd5b506001600160a01b03813581169160208101359091169060400135612bf2565b348015610e3157600080fd5b506102ac60048036036060811015610e4857600080fd5b810190602081018135600160201b811115610e6257600080fd5b820183602082011115610e7457600080fd5b803590602001918460208302840111600160201b83111715610e9557600080fd5b9190808060200260200160405190810160405280939291908181526020018383602002808284376000920191909152509295949360208101935035915050600160201b811115610ee457600080fd5b820183602082011115610ef657600080fd5b803590602001918460208302840111600160201b83111715610f1757600080fd5b9190808060200260200160405190810160405280939291908181526020018383602002808284376000920191909152509295949360208101935035915050600160201b811115610f6657600080fd5b820183602082011115610f7857600080fd5b803590602001918460208302840111600160201b83111715610f9957600080fd5b919080806020026020016040519081016040528093929190818152602001838360200280828437600092019190915250929550612cc7945050505050565b348015610fe357600080fd5b506102ac60048036036040811015610ffa57600080fd5b506001600160a01b0381358116916020013516612e71565b34801561101e57600080fd5b506102c8612f10565b34801561103357600080fd5b506102c8612f1f565b34801561104857600080fd5b506102c8612f2e565b6009546001600160a01b031681565b3360009081526011602052604090205460ff166110b2576040805162461bcd60e51b815260206004820152601a6024820152600080516020614959833981519152604482015290519081900360640190fd5b600f54604080516307c7edc360e01b81526001600160a01b038681166004830152602482018690528481166044830152915191909216916307c7edc391606480830192600092919082900301818387803b15801561110f57600080fd5b505af1158015611123573d6000803e3d6000fd5b50505050505050565b600c6020526000908152604090205481565b61271081565b6001546001600160a01b031681565b6002546001600160a01b031633146111a3576040805162461bcd60e51b815260206004820152600e60248201526d2128269d103337b93134b23232b760911b604482015290519081900360640190fd5b6001600160a01b0382166000818152601460209081526040918290208490558151928352820183905280517f6b1e3c843407e072e0b29bbde7fa8e8bb9e8580b6b6002be285788429e8459169281900390910190a15050565b6002546001600160a01b0316331461124c576040805162461bcd60e51b815260206004820152600e60248201526d2128269d103337b93134b23232b760911b604482015290519081900360640190fd5b600f8054821515600160a81b810260ff60a81b199092169190911790915560408051918252517fa956222e37fe025ff51e5440ac729a9bd417ff91e485e14dcffa2c0ba8894f409181900360200190a150565b600b6020526000908152604090205481565b6002546001600160a01b03163314611301576040805162461bcd60e51b815260206004820152600e60248201526d2128269d103337b93134b23232b760911b604482015290519081900360640190fd5b6001600160a01b038216600081815260116020908152604091829020805460ff1916851515908117909155825190815291517f1d5bc0255b943d6a5b5279e8a55d74d620baccbceecb25e87a3558f14c4c118e9281900390910190a25050565b600260005414156113a7576040805162461bcd60e51b815260206004820152601f6024820152600080516020614878833981519152604482015290519081900360640190fd5b600260009081553381526012602052604090205460ff16806113d25750600f54600160a01b900460ff165b611411576040805162461bcd60e51b815260206004820152601a6024820152600080516020614959833981519152604482015290519081900360640190fd5b875160011480611422575087516002145b61145d5760405162461bcd60e51b8152600401808060200182810382526025815260200180614a1c6025913960400191505060405180910390fd5b61146681612f3d565b8515611636578751600114156115265760055488516001600160a01b0390911690631b827878908a9060009061149857fe5b602002602001015133308a6040518563ffffffff1660e01b815260040180856001600160a01b03168152602001846001600160a01b03168152602001836001600160a01b03168152602001828152602001945050505050600060405180830381600087803b15801561150957600080fd5b505af115801561151d573d6000803e3d6000fd5b505050506115d8565b60055488516001600160a01b0390911690631b827878908a9060009061154857fe5b6020908102919091010151600354604080516001600160e01b031960e086901b1681526001600160a01b039384166004820152336024820152929091166044830152606482018a905251608480830192600092919082900301818387803b1580156115b257600080fd5b505af11580156115c6573d6000803e3d6000fd5b505050506115d5888630612fc5565b95505b60006115e8338a898b888a61305c565b9050611634600360009054906101000a90046001600160a01b0316828b60018d51038151811061161457fe5b60200260200101516001600160a01b03166132369092919063ffffffff16565b505b61165b338960018b51038151811061164a57fe5b60200260200101518987878761328d565b50506001600055505050505050565b6116726135c1565b600a80546001600160a01b0319166001600160a01b0392909216919091179055565b6002546001600160a01b031633146116e4576040805162461bcd60e51b815260206004820152600e60248201526d2128269d103337b93134b23232b760911b604482015290519081900360640190fd5b6001600160a01b038216600081815260126020908152604091829020805460ff191685151590811790915582519384529083015280517fa4e46c70ff429a91de7d1716d736e877c7cca1c22ac850b23d242530dd95e4749281900390910190a15050565b6117506135c1565b600855565b6001546001600160a01b031633146117a2576040805162461bcd60e51b81526020600482015260156024820152600080516020614898833981519152604482015290519081900360640190fd5b6117b56001600160a01b03831682613613565b5050565b6002546001600160a01b03163314611809576040805162461bcd60e51b815260206004820152600e60248201526d2128269d103337b93134b23232b760911b604482015290519081900360640190fd5b600f80546001600160a01b0383166001600160a01b0319909116811790915560408051918252517f24dec89f72fb8742074c22c398fc4328253685f63e6251b144f937759b4b47a39181900360200190a150565b600260005414156118a3576040805162461bcd60e51b815260206004820152601f6024820152600080516020614878833981519152604482015290519081900360640190fd5b600260009081553381526012602052604090205460ff16806118ce5750600f54600160a01b900460ff165b61190d576040805162461bcd60e51b815260206004820152601a6024820152600080516020614959833981519152604482015290519081900360640190fd5b875160021461194d5760405162461bcd60e51b8152600401808060200182810382526025815260200180614a1c6025913960400191505060405180910390fd5b60065488516001600160a01b03909116908990600019810190811061196e57fe5b60200260200101516001600160a01b0316146119bf576040805162461bcd60e51b815260206004820152601e6024820152600080516020614918833981519152604482015290519081900360640190fd5b6119df33896000815181106119d057fe5b602002602001015189876136f8565b6000611a05338a6000815181106119f257fe5b60200260200101518a8a8a8a308a61387a565b9050611a2e600360009054906101000a90046001600160a01b0316828b60008151811061161457fe5b6000611a3b8a8430612fc5565b9050611a478186613c34565b505060016000555050505050505050565b60116020526000908152604090205460ff1681565b6006546001600160a01b031681565b60026000541415611ac2576040805162461bcd60e51b815260206004820152601f6024820152600080516020614878833981519152604482015290519081900360640190fd5b600260009081553381526012602052604090205460ff1680611aed5750600f54600160a01b900460ff165b611b2c576040805162461bcd60e51b815260206004820152601a6024820152600080516020614959833981519152604482015290519081900360640190fd5b6006546001600160a01b03888116911614611b785760405162461bcd60e51b81526004018080602001828103825260298152602001806149a06029913960400191505060405180910390fd5b611b84338888866136f8565b6000611b96338989898989308961387a565b905061165b8184613c34565b6002546001600160a01b03163314611bf2576040805162461bcd60e51b815260206004820152600e60248201526d2128269d103337b93134b23232b760911b604482015290519081900360640190fd5b6001600160a01b038216600081815260136020908152604091829020805460ff1916851515908117909155825190815291517f8c0d56805c3b43d441481229dc64bee168253ffe4305f37ab7cfe63b1c4268c69281900390910190a25050565b600f54600160a81b900460ff1681565b611c6a6135c1565b600755565b60146020526000908152604090205481565b60136020526000908152604090205460ff1681565b60026000541415611cdc576040805162461bcd60e51b815260206004820152601f6024820152600080516020614878833981519152604482015290519081900360640190fd5b600260009081553381526012602052604090205460ff1680611d075750600f54600160a01b900460ff165b611d46576040805162461bcd60e51b815260206004820152601a6024820152600080516020614959833981519152604482015290519081900360640190fd5b8751600214611d865760405162461bcd60e51b8152600401808060200182810382526025815260200180614a1c6025913960400191505060405180910390fd5b611d9733896000815181106119d057fe5b6000611daa338a6000815181106119f257fe5b9050611dd3600360009054906101000a90046001600160a01b0316828b60008151811061161457fe5b611a47898386612fc5565b6004546001600160a01b031681565b60075481565b6001546001600160a01b03163314611e40576040805162461bcd60e51b81526020600482015260156024820152600080516020614898833981519152604482015290519081900360640190fd5b600280546001600160a01b0383166001600160a01b0319909116811790915560408051918252517f5a272403b402d892977df56625f4164ccaf70ca3863991c43ecfe76a6905b0a19181900360200190a150565b600e546001600160a01b031681565b6002546001600160a01b03163314611ef3576040805162461bcd60e51b815260206004820152600e60248201526d2128269d103337b93134b23232b760911b604482015290519081900360640190fd5b60108190556040805182815290517f84a322f9a1c11064ccce3a397d245d08f0c4966f135287307b2640cb92a058349181900360200190a150565b60126020526000908152604090205460ff1681565b60026000541415611f89576040805162461bcd60e51b815260206004820152601f6024820152600080516020614878833981519152604482015290519081900360640190fd5b600260009081553381526012602052604090205460ff1680611fb45750600f54600160a01b900460ff165b611ff3576040805162461bcd60e51b815260206004820152601a6024820152600080516020614959833981519152604482015290519081900360640190fd5b611fff338888866136f8565b61165b338888888888888861387a565b600d6020526000908152604090205481565b60085481565b6002546001600160a01b03163314612077576040805162461bcd60e51b815260206004820152600e60248201526d2128269d103337b93134b23232b760911b604482015290519081900360640190fd5b600e80546001600160a01b0383166001600160a01b0319909116811790915560408051918252517f583d5a8a640dd23e92c793dba00c959d15eaf43d4530f3bbf15229c80869d23c9181900360200190a150565b6002546001600160a01b0316331461211b576040805162461bcd60e51b815260206004820152600e60248201526d2128269d103337b93134b23232b760911b604482015290519081900360640190fd5b600f8054821515600160a01b810260ff60a01b199092169190911790915560408051918252517feac6b3611e79ff0d8ea5daa8439f6b1ab7eea4ebf95f1dd360417f712c3fc3049181900360200190a150565b600260005414156121b4576040805162461bcd60e51b815260206004820152601f6024820152600080516020614878833981519152604482015290519081900360640190fd5b600260009081553381526012602052604090205460ff16806121df5750600f54600160a01b900460ff165b61221e576040805162461bcd60e51b815260206004820152601a6024820152600080516020614959833981519152604482015290519081900360640190fd5b86516001148061222f575086516002145b61226a5760405162461bcd60e51b8152600401808060200182810382526025815260200180614a1c6025913960400191505060405180910390fd5b60065487516001600160a01b0390911690889060009061228657fe5b60200260200101516001600160a01b0316146122d7576040805162461bcd60e51b815260206004820152601e6024820152600080516020614918833981519152604482015290519081900360640190fd5b6122e081612f3d565b3415612364576122ee613cad565b865134906001101561232557600354600654612317916001600160a01b03918216911634613236565b612322888730612fc5565b90505b6000612335338a848b898b61305c565b9050612361600360009054906101000a90046001600160a01b0316828b60018d51038151811061161457fe5b50505b612389338860018a51038151811061237857fe5b60200260200101518887878761328d565b505060016000555050505050565b61239f6135c1565b600980546001600160a01b0383166001600160a01b0319909116811790915560408051918252517f828abcccea18192c21d645e575652c49e20b986dab777906fc473d056b01b6a89181900360200190a150565b600f546001600160a01b031681565b60105481565b3360009081526011602052604090205460ff1661245a576040805162461bcd60e51b815260206004820152601a6024820152600080516020614959833981519152604482015290519081900360640190fd5b600354604080516312d43a5160e01b815290516001600160a01b039092169160009183916312d43a5191600480820192602092909190829003018186803b1580156124a457600080fd5b505afa1580156124b8573d6000803e3d6000fd5b505050506040513d60208110156124ce57600080fd5b5051600e5460408051630130197760e11b81526001600160a01b038b81166004830152602482018b90529151939450600093919092169163026032ee91604480830192610160929190829003018186803b15801561252b57600080fd5b505afa15801561253f573d6000803e3d6000fd5b505050506040513d61016081101561255657600080fd5b5060800151604080516306d63c1d60e41b81526001600160a01b038681166004830152915192935090841691636d63c1d09160248082019260009290919082900301818387803b1580156125a957600080fd5b505af11580156125bd573d6000803e3d6000fd5b5050600e546040805163bbede3fb60e01b81526001600160a01b038d81166004830152602482018d90528b81166044830152606482018b9052608482018a9052915191909216935063bbede3fb925060a480830192600092919082900301818387803b15801561262c57600080fd5b505af1158015612640573d6000803e3d6000fd5b50505050816001600160a01b031663d3c87bbb846040518263ffffffff1660e01b815260040180826001600160a01b03168152602001915050600060405180830381600087803b15801561269357600080fd5b505af11580156126a7573d6000803e3d6000fd5b505050506126b58882613d03565b5050505050505050565b6001546001600160a01b0316331461270c576040805162461bcd60e51b81526020600482015260156024820152600080516020614898833981519152604482015290519081900360640190fd5b600180546001600160a01b0319166001600160a01b0392909216919091179055565b3360009081526011602052604090205460ff16612780576040805162461bcd60e51b815260206004820152601a6024820152600080516020614959833981519152604482015290519081900360640190fd5b600061278c8484613e8c565b90506000600360009054906101000a90046001600160a01b031690506000816001600160a01b03166312d43a516040518163ffffffff1660e01b815260040160206040518083038186803b1580156127e357600080fd5b505afa1580156127f7573d6000803e3d6000fd5b505050506040513d602081101561280d57600080fd5b5051604080516306d63c1d60e41b81526001600160a01b038581166004830152915192935090831691636d63c1d09160248082019260009290919082900301818387803b15801561285d57600080fd5b505af1158015612871573d6000803e3d6000fd5b5050600e546040805163d38ab51960e01b81526001600160a01b038b81166004830152602482018b90528981166044830152915191909216935063d38ab5199250606480830192600092919082900301818387803b1580156128d257600080fd5b505af11580156128e6573d6000803e3d6000fd5b50505050806001600160a01b031663d3c87bbb836040518263ffffffff1660e01b815260040180826001600160a01b03168152602001915050600060405180830381600087803b15801561293957600080fd5b505af115801561294d573d6000803e3d6000fd5b5050505061295b86846141c9565b505050505050565b600f54600160a01b900460ff1681565b600a546001600160a01b031681565b600260005414156129c8576040805162461bcd60e51b815260206004820152601f6024820152600080516020614878833981519152604482015290519081900360640190fd5b600260009081553381526013602052604090205460ff16612a1e576040805162461bcd60e51b815260206004820152601a6024820152600080516020614959833981519152604482015290519081900360640190fd5b600354604080516312d43a5160e01b815290516001600160a01b039092169160009183916312d43a5191600480820192602092909190829003018186803b158015612a6857600080fd5b505afa158015612a7c573d6000803e3d6000fd5b505050506040513d6020811015612a9257600080fd5b5051604080516306d63c1d60e41b81526001600160a01b038581166004830152915192935090831691636d63c1d09160248082019260009290919082900301818387803b158015612ae257600080fd5b505af1158015612af6573d6000803e3d6000fd5b505060408051631bc5d52960e31b81526001600160a01b038b811660048301528a811660248301528981166044830152881515606483015287811660848301529151918616935063de2ea948925060a48082019260009290919082900301818387803b158015612b6557600080fd5b505af1158015612b79573d6000803e3d6000fd5b50505050806001600160a01b031663d3c87bbb836040518263ffffffff1660e01b815260040180826001600160a01b03168152602001915050600060405180830381600087803b158015612bcc57600080fd5b505af1158015612be0573d6000803e3d6000fd5b50506001600055505050505050505050565b6001546001600160a01b03163314612c3f576040805162461bcd60e51b81526020600482015260156024820152600080516020614898833981519152604482015290519081900360640190fd5b826001600160a01b031663095ea7b383836040518363ffffffff1660e01b815260040180836001600160a01b0316815260200182815260200192505050602060405180830381600087803b158015612c9657600080fd5b505af1158015612caa573d6000803e3d6000fd5b505050506040513d6020811015612cc057600080fd5b5050505050565b612ccf6135c1565b60005b8351811015612d6a576000848281518110612ce957fe5b60200260200101519050838281518110612cff57fe5b6020026020010151600c6000836001600160a01b03166001600160a01b0316815260200190815260200160002081905550828281518110612d3c57fe5b6020908102919091018101516001600160a01b039092166000908152600d9091526040902055600101612cd2565b507fae32d569b058895b9620d6552b09aaffedc9a6f396be4d595a224ad09f8b213983838360405180806020018060200180602001848103845287818151815260200191508051906020019060200280838360005b83811015612dd7578181015183820152602001612dbf565b50505050905001848103835286818151815260200191508051906020019060200280838360005b83811015612e16578181015183820152602001612dfe565b50505050905001848103825285818151815260200191508051906020019060200280838360005b83811015612e55578181015183820152602001612e3d565b50505050905001965050505050505060405180910390a1505050565b612e796135c1565b6001600160a01b0382166000908152600b602052604090205480612e9d57506117b5565b6001600160a01b0383166000818152600b6020526040812055612ec1908383613236565b604080516001600160a01b0380861682528416602082015280820183905290517f4f1b51dd7a2fcb861aa2670f668be66835c4ee12b4bbbf037e4d0018f39819e49181900360600190a1505050565b6002546001600160a01b031681565b6005546001600160a01b031681565b6003546001600160a01b031681565b8015801590612f5657506009546001600160a01b031615155b15612fc257600954604080516356b4b2ad60e01b81523360048201526024810184905290516001600160a01b03909216916356b4b2ad9160448082019260009290919082900301818387803b158015612fae57600080fd5b505af1158015612cc0573d6000803e3d6000fd5b50565b600083516002141561300c5761300584600081518110612fe157fe5b602002602001015185600181518110612ff657fe5b602002602001015185856142cf565b9050613055565b6040805162461bcd60e51b8152602060048201526019602482015278084a09a7440d2dcecc2d8d2c840bee0c2e8d05cd8cadccee8d603b1b604482015290519081900360640190fd5b9392505050565b600080600a60009054906101000a90046001600160a01b03166001600160a01b0316639bbfbc288989898989896008546040518863ffffffff1660e01b815260040180886001600160a01b0316815260200180602001878152602001866001600160a01b031681526020018515158152602001848152602001838152602001828103825288818151815260200191508051906020019060200280838360005b838110156131135781810151838201526020016130fb565b505050509050019850505050505050505060206040518083038186803b15801561313c57600080fd5b505afa158015613150573d6000803e3d6000fd5b505050506040513d602081101561316657600080fd5b50519050801561322757600061319f6127106131996131926007546127106143b990919063ffffffff16565b8a906143fb565b90614454565b905060006131ad88836143b9565b905060008960018b5103815181106131c157fe5b6020026020010151905061320382600b6000846001600160a01b03166001600160a01b031681526020019081526020016000205461449390919063ffffffff16565b6001600160a01b039091166000908152600b602052604090205550915061322c9050565b859150505b9695505050505050565b604080516001600160a01b038416602482015260448082018490528251808303909101815260649091019091526020810180516001600160e01b031663a9059cbb60e01b1790526132889084906144eb565b505050565b600354600a546001600160a01b038681166000818152600c6020908152604080832054600d835281842054825163e1ff681160e01b8152600160048201528b151560248201526044810196909652606486018a9052608486018c905260a486019190915260c4850152519584169591949093169263e1ff68119260e4808201939182900301818787803b15801561332357600080fd5b505af1158015613337573d6000803e3d6000fd5b505050506040513d602081101561334d57600080fd5b5051604080516312d43a5160e01b815290519192506000916001600160a01b038516916312d43a51916004808301926020929190829003018186803b15801561339557600080fd5b505afa1580156133a9573d6000803e3d6000fd5b505050506040513d60208110156133bf57600080fd5b50516004805460408051633cc8e33b60e21b81526001600160a01b038e8116948201949094528c841660248201528b841660448201528915156064820152608481018b905260a48101879052600160c4820152905193945091169163f3238cec9160e48082019260009290919082900301818387803b15801561344157600080fd5b505af1158015613455573d6000803e3d6000fd5b50505050806001600160a01b0316636d63c1d0846040518263ffffffff1660e01b815260040180826001600160a01b03168152602001915050600060405180830381600087803b1580156134a857600080fd5b505af11580156134bc573d6000803e3d6000fd5b505060055460408051630f8ee8bb60e11b81526001600160a01b038e811660048301528d811660248301528c81166044830152606482018c90528a151560848301529151919092169350631f1dd176925060a480830192600092919082900301818387803b15801561352d57600080fd5b505af1158015613541573d6000803e3d6000fd5b50505050806001600160a01b031663d3c87bbb846040518263ffffffff1660e01b815260040180826001600160a01b03168152602001915050600060405180830381600087803b15801561359457600080fd5b505af11580156135a8573d6000803e3d6000fd5b505050506135b689876141c9565b505050505050505050565b6002546001600160a01b03163314613611576040805162461bcd60e51b815260206004820152600e60248201526d2128269d103337b93134b23232b760911b604482015290519081900360640190fd5b565b80471015613668576040805162461bcd60e51b815260206004820152601d60248201527f416464726573733a20696e73756666696369656e742062616c616e6365000000604482015290519081900360640190fd5b6040516000906001600160a01b0384169083908381818185875af1925050503d80600081146136b3576040519150601f19603f3d011682016040523d82523d6000602084013e6136b8565b606091505b50509050806132885760405162461bcd60e51b815260040180806020018281038252603a8152602001806148b8603a913960400191505060405180910390fd5b60035460408051634a3f088d60e01b81526001600160a01b0387811660048301528681166024830152858116604483015284151560648301529151919092169160009182918491634a3f088d9160848082019261010092909190829003018186803b15801561376657600080fd5b505afa15801561377a573d6000803e3d6000fd5b505050506040513d61010081101561379157600080fd5b50805160e0909101519092509050816137f1576040805162461bcd60e51b815260206004820152601f60248201527f506f736974696f6e4d616e616765723a20656d70747920706f736974696f6e00604482015290519081900360640190fd5b6001600160a01b03871660009081526014602052604081205461381657601054613830565b6001600160a01b0388166000908152601460205260409020545b90504261383d8383614493565b11156126b55760405162461bcd60e51b81526004018080602001828103825260298152602001806149c96029913960400191505060405180910390fd5b600354600a546040805163e1ff681160e01b815260006004820181905287151560248301526001600160a01b038b81166044840152606483018790526084830182905260a4830182905260c48301829052925190948316938593169163e1ff68119160e480830192602092919082900301818787803b1580156138fc57600080fd5b505af1158015613910573d6000803e3d6000fd5b505050506040513d602081101561392657600080fd5b5051604080516312d43a5160e01b815290519192506000916001600160a01b038516916312d43a51916004808301926020929190829003018186803b15801561396e57600080fd5b505afa158015613982573d6000803e3d6000fd5b505050506040513d602081101561399857600080fd5b81019080805190602001909291905050509050600460009054906101000a90046001600160a01b03166001600160a01b031663f3238cec8d8d8d8b8d8860006040518863ffffffff1660e01b815260040180886001600160a01b03168152602001876001600160a01b03168152602001866001600160a01b0316815260200185151581526020018481526020018381526020018215158152602001975050505050505050600060405180830381600087803b158015613a5657600080fd5b505af1158015613a6a573d6000803e3d6000fd5b50505050806001600160a01b0316636d63c1d0846040518263ffffffff1660e01b815260040180826001600160a01b03168152602001915050600060405180830381600087803b158015613abd57600080fd5b505af1158015613ad1573d6000803e3d6000fd5b505050506000600560009054906101000a90046001600160a01b03166001600160a01b0316632662166b8e8e8e8e8e8e8e6040518863ffffffff1660e01b815260040180886001600160a01b03168152602001876001600160a01b03168152602001866001600160a01b031681526020018581526020018481526020018315158152602001826001600160a01b03168152602001975050505050505050602060405180830381600087803b158015613b8857600080fd5b505af1158015613b9c573d6000803e3d6000fd5b505050506040513d6020811015613bb257600080fd5b50516040805163d3c87bbb60e01b81526001600160a01b03878116600483015291519293509084169163d3c87bbb9160248082019260009290919082900301818387803b158015613c0257600080fd5b505af1158015613c16573d6000803e3d6000fd5b50505050613c248d8a613d03565b9c9b505050505050505050505050565b60065460408051632e1a7d4d60e01b81526004810185905290516001600160a01b0390921691632e1a7d4d9160248082019260009290919082900301818387803b158015613c8157600080fd5b505af1158015613c95573d6000803e3d6000fd5b506117b5925050506001600160a01b03821683613613565b341561361157600660009054906101000a90046001600160a01b03166001600160a01b031663d0e30db0346040518263ffffffff1660e01b81526004016000604051808303818588803b158015612fae57600080fd5b6009546001600160a01b031680613d1a57506117b5565b600080826001600160a01b031663534ef883866040518263ffffffff1660e01b815260040180826001600160a01b03168152602001915050604080518083038186803b158015613d6957600080fd5b505afa158015613d7d573d6000803e3d6000fd5b505050506040513d6040811015613d9357600080fd5b508051602090910151909250905081613dae575050506117b5565b7f474c763ff84bf2c2039a6d9fea955ecd0f724030e3c365b91169c6a16fe751b78585600360009054906101000a90046001600160a01b03166001600160a01b031663318bc6896040518163ffffffff1660e01b815260040160206040518083038186803b158015613e1f57600080fd5b505afa158015613e33573d6000803e3d6000fd5b505050506040513d6020811015613e4957600080fd5b5051604080516001600160a01b03948516815260208101939093528281019190915260608201869052918416608082015290519081900360a00190a15050505050565b6000806000806000806000600e60009054906101000a90046001600160a01b03166001600160a01b031663d3bab1d18a8a6040518363ffffffff1660e01b815260040180836001600160a01b03168152602001828152602001925050506101206040518083038186803b158015613f0257600080fd5b505afa158015613f16573d6000803e3d6000fd5b505050506040513d610120811015613f2d57600080fd5b508051602082015160408301516060840151608085015160a090950151600f54949b509299509097509550919350909150600160a81b900460ff16613f79575094506141c39350505050565b80613f8b575094506141c39350505050565b60008211613fe0576040805162461bcd60e51b815260206004820152601d60248201527f506f736974696f6e4d616e616765723a206c6f6e67206465706f736974000000604482015290519081900360640190fd5b60035460408051634a3f088d60e01b81526001600160a01b038c811660048301528781166024830152868116604483015284151560648301529151919092169160009182918491634a3f088d9160848082019261010092909190829003018186803b15801561404e57600080fd5b505afa158015614062573d6000803e3d6000fd5b505050506040513d61010081101561407957600080fd5b50805160209091015190925090508161409d578499505050505050505050506141c3565b60006140a98387614493565b90506000846001600160a01b0316630a48d5a98c8c6040518363ffffffff1660e01b815260040180836001600160a01b031681526020018281526020019250505060206040518083038186803b15801561410257600080fd5b505afa158015614116573d6000803e3d6000fd5b505050506040513d602081101561412c57600080fd5b50519050600061413c8483614493565b9050600061415085613199886127106143fb565b905060006141718361319960085461271001886143fb90919063ffffffff16565b9050818110156141b25760405162461bcd60e51b81526004018080602001828103825260278152602001806149796027913960400191505060405180910390fd5b50979c505050505050505050505050505b92915050565b6009546001600160a01b0316806141e057506117b5565b600080826001600160a01b031663534ef883866040518263ffffffff1660e01b815260040180826001600160a01b03168152602001915050604080518083038186803b15801561422f57600080fd5b505afa158015614243573d6000803e3d6000fd5b505050506040513d604081101561425957600080fd5b5080516020918201516003546040805163318bc68960e01b815290519396509194507fc2414023ce7002ee98557d1e7be21e5559073336f2217ee5f9b2e50fd85f71ee93899389936001600160a01b039093169263318bc689926004808301939192829003018186803b158015613e1f57600080fd5b60035460408051634998b10960e11b81526001600160a01b03878116600483015286811660248301528481166044830152915160009384931691639331621291606480830192602092919082900301818787803b15801561432f57600080fd5b505af1158015614343573d6000803e3d6000fd5b505050506040513d602081101561435957600080fd5b50519050838110156143b0576040805162461bcd60e51b815260206004820152601b60248201527a1094134e881a5b9cdd59999a58da595b9d08185b5bdd5b9d13dd5d602a1b604482015290519081900360640190fd5b95945050505050565b600061305583836040518060400160405280601e81526020017f536166654d6174683a207375627472616374696f6e206f766572666c6f77000081525061459c565b60008261440a575060006141c3565b8282028284828161441757fe5b04146130555760405162461bcd60e51b81526004018080602001828103825260218152602001806149386021913960400191505060405180910390fd5b600061305583836040518060400160405280601a815260200179536166654d6174683a206469766973696f6e206279207a65726f60301b815250614633565b600082820183811015613055576040805162461bcd60e51b815260206004820152601b60248201527a536166654d6174683a206164646974696f6e206f766572666c6f7760281b604482015290519081900360640190fd5b6060614540826040518060400160405280602081526020017f5361666545524332303a206c6f772d6c6576656c2063616c6c206661696c6564815250856001600160a01b03166146989092919063ffffffff16565b8051909150156132885780806020019051602081101561455f57600080fd5b50516132885760405162461bcd60e51b815260040180806020018281038252602a8152602001806149f2602a913960400191505060405180910390fd5b6000818484111561462b5760405162461bcd60e51b81526004018080602001828103825283818151815260200191508051906020019080838360005b838110156145f05781810151838201526020016145d8565b50505050905090810190601f16801561461d5780820380516001836020036101000a031916815260200191505b509250505060405180910390fd5b505050900390565b600081836146825760405162461bcd60e51b81526020600482018181528351602484015283519092839260449091019190850190808383600083156145f05781810151838201526020016145d8565b50600083858161468e57fe5b0495945050505050565b60606146a784846000856146af565b949350505050565b6060824710156146f05760405162461bcd60e51b81526004018080602001828103825260268152602001806148f26026913960400191505060405180910390fd5b6146f98561480b565b61474a576040805162461bcd60e51b815260206004820152601d60248201527f416464726573733a2063616c6c20746f206e6f6e2d636f6e7472616374000000604482015290519081900360640190fd5b60006060866001600160a01b031685876040518082805190602001908083835b602083106147895780518252601f19909201916020918201910161476a565b6001836020036101000a03801982511681845116808217855250505050505090500191505060006040518083038185875af1925050503d80600081146147eb576040519150601f19603f3d011682016040523d82523d6000602084013e6147f0565b606091505b5091509150614800828286614811565b979650505050505050565b3b151590565b60608315614820575081613055565b8251156148305782518084602001fd5b60405162461bcd60e51b81526020600482018181528451602484015284518593919283926044019190850190808383600083156145f05781810151838201526020016145d856fe5265656e7472616e637947756172643a207265656e7472616e742063616c6c00476f7665726e61626c653a20666f7262696464656e0000000000000000000000416464726573733a20756e61626c6520746f2073656e642076616c75652c20726563697069656e74206d61792068617665207265766572746564416464726573733a20696e73756666696369656e742062616c616e636520666f722063616c6c506f736974696f6e4d616e616765723a20696e76616c6964205f706174680000536166654d6174683a206d756c7469706c69636174696f6e206f766572666c6f77506f736974696f6e4d616e616765723a20666f7262696464656e000000000000506f736974696f6e4d616e616765723a206c6f6e67206c65766572616765206465637265617365506f736974696f6e4d616e616765723a20696e76616c6964205f636f6c6c61746572616c546f6b656e506f736974696f6e4d616e616765723a206d696e2064656c6179206e6f7420796574207061737365645361666545524332303a204552433230206f7065726174696f6e20646964206e6f742073756363656564506f736974696f6e4d616e616765723a20696e76616c6964205f706174682e6c656e677468a164736f6c634300060c000a",
  "linkReferences": {},
  "deployedLinkReferences": {}
}